:020000040040BA
:10000000D0340020110640000D0640000D064000CF
:100010000D0640000D0640000D06400000000000E7
:100020000000000000000000000000000D0640007D
:100030000D064000000000000D0640000D064000C7
:100040000D0640000D0640000D0640000D06400064
:100050000D0640000D0640000D0640000D06400054
:100060000D0640000D0640000D064000C104400092
:10007000D5044000E90440000D0640000D06400094
:100080000D0640000D0640000D0640000D06400024
:100090000D0640000D0640000D0640000D06400014
:1000A0000D0640000D0640000D0640000D06400004
:1000B0000D0640000D0640000D0640000D064000F4
:1000C0000D0640000D0640000D0640000D064000E4
:1000D00008B50548054B191A062900D808BD044A79
:1000E000002AFBD09047F9E7980940009B0940009F
:1000F0000000000008B50748074B191A8A1002EBE8
:10010000D273591000D108BD044A002AFBD0904791
:10011000F9E700BF9809400098094000000000007E
:1001200010B5064C237843B9FFF7D2FF044810B14D
:100130000448AFF300800121217010BD3804002075
:10014000000000009809400008B5084B1BB10848A2
:100150000849AFF300800848016811B1074A02B1AD
:100160009047BDE80840FFF7C5BF00BF0000000092
:10017000980940003C04002098094000000000005D
:1001800008B50D480D4B984700203E210C4A90477A
:100190000C4880470028FBD00B4988470B4A0C4B82
:1001A0009A620C4880470028FBD010200A498847F3
:1001B0000A4A904708BD00BF000E270761074000AC
:1001C0004505400091054000A1054000013F132076
:1001D00000040E40B1054000FD0440008D064000C3
:1001E000084B04225A66C3F890205A655A62C3F835
:1001F0008020186F20F0040119675A6F22F0040064
:1002000058677047000E0E40F8B52748274B284C1A
:10021000284D294F98470B20A0470C20A0470D20C0
:10022000A047264C4FF40000042620632061C4F848
:10023000A0006E61C5F8A060B8474FF480324FF45B
:10024000801121632161C4F8A0102A632A61C5F8D6
:10025000A0201B4D4FF48003236329462361032014
:10026000C4F8A030174CA04729463046A04729467D
:100270000C20A04729460D20A04729460E20A04764
:1002800009204FF08051A04705F140550A200E4942
:10029000A04729465520A04729465F20A0470B4983
:1002A0005B20A047B847F8BD50140E40050640003B
:1002B000C1054000000E0E40E101400000120E405A
:1002C00001000008A90340000100001001000028FF
:1002D000B1F1C05F10B542642FD008D8B1F1006F02
:1002E00016D0B1F1805F1ED0002930D02EE0B1F1E0
:1002F000205F2CD005D8B1F1005F27D1036F1343E5
:1003000020E0B1F1405F22D0B1F1605F1ED110BD9D
:10031000016F046FD343214019400167416F446F5F
:1003200021400B4011E0036F42EA03010167436F74
:10033000416F0B4023EA020307E0036F016F0B409C
:1003400023EA02030367436F13434367426010BD10
:10035000D30741644CBF4166016612F00A0F14BF17
:1003600001624162930702D5C0F8801003E01307D1
:1003700048BFC0F8841041610160704710B5029C0D
:1003800041640CB1416600E001660BB1016500E01B
:1003900041650AB1016300E041630161016010BD84
:1003A000C06C7047806C7047F7B544090D4604F582
:1003B000001101F2077205F0F0415402B1F1005F43
:1003C0001ED009D8B1F1805F1AD0B1F1C05F17D04B
:1003D000B1F1006F38D113E0B1F1405F1FD0B1F13E
:1003E000605F1CD0B1F1205F2ED100F01F03012609
:1003F00006FA03F120462A46144B9847304624E07B
:1004000000F01F07012606FA07F7114B20463A466F
:100410009847EB0701D42766F0E76766EEE7012609
:1004200005F0605200F01F0105EA0600009020462A
:10043000B2F16054634253EB040206FA01F1C5F3D2
:100440008003044CA047D9E70020FEBD51034000C3
:10045000D10240007D034000F8B5144B06460F461C
:1004600098471349054630468847054003D111494E
:100470000868A0B9F8BD104C54F80C0CB8420AD169
:1004800054F8081C294206D022683846904754F890
:10049000083C25EA03051034002DEDD1E7E7074AB3
:1004A00013680BB130469847F8BD00BFA103400068
:1004B000A5034000C8040020640400205404002068
:1004C00008B50248024B0B21984708BD000E0E40AC
:1004D0005904400008B50248024B0C21984708BD5A
:1004E00000100E405904400008B50248024B0D218F
:1004F000984708BD00120E4059044000104B1A6B7B
:1005000022F070010843186340F601020C48836E24
:10051000190703D4013AF9D101207047026B22F088
:10052000030141F00203036340F601010448826EB7
:10053000100702D40139F9D1EEE70020704700BF5F
:1005400000040E400F4B1A6A28B10F490F481140A2
:1005500041EA000214E022F45C1020F0030242F4AD
:100560005C1040F00102090642EA11401862054B96
:100570009A6ED107FBD5196A41F09B7040F4803226
:100580001A62704700040E40FCFFC8FE02003701EB
:10059000024B986E00F48030704700BF00040E409C
:1005A000024B4FF000529A62704700BF00040E40A9
:1005B000024B986E00F00200704700BF00040E402E
:1005C000222819D81F280E4B4FF0010208D899692C
:1005D00002FA00F000EA010282420FD018610DE039
:1005E0002038D3F8081102FA00F000EA0102824232
:1005F00004D0C3F8000101E00120704700207047DB
:1006000000040E404FF4004343607047FEE70000D3
:1006100008B5154A154B9A4201D115480AE0002346
:10062000124A144998188842F7D20F48195899501D
:100630000433F5E7104A904203D2002140F8041B2E
:10064000F8E70E480E4B00F1604220F07F01B2F552
:10065000203F996003D2986840F000519960094B9F
:100660009847094A9047FEE798094000000000209B
:100670003804002038040020CC0400200000400092
:1006800000ED00E001094000C50740002E4A136B51
:1006900003F0030101292D4B0DD003D3116AC901C9
:1006A0001BD526E02A4A526910064CBF4FF400427F
:1006B0004FF4FA420FE0116AC9010BD425481860C3
:1006C000126A02F07001102902D0202928D101E01D
:1006D000214A00E0214A1A6022E01E491960126A8C
:1006E00002F07002102A02D0202A04D101E01A4A36
:1006F00000E01A4A1A60144B1A6B02F00302022A35
:100700000CBF986AD86A114A0CBF996AD96A1368F3
:10071000C0F30A4001304343C9B2B3FBF1F01060AB
:100720000948036B03F070017029084B04D11A6863
:100730000320B2FBF0F105E0026B1968C2F302106E
:1007400021FA00F11960704700040E4000000020FB
:1007500010140E4000093D0000127A00001BB70083
:10076000114B124A9842124B01D8002118E011494E
:10077000884202D84FF4807112E00F49884202D8B3
:100780004FF400710CE00D49884202D84FF44071DB
:1007900006E00B49884294BF4FF480614FF4A0619A
:1007A00011601960704700BFFF2C3101000A0E4034
:1007B000000C0E40FF596202FF869303FFB3C4048E
:1007C000FFE0F50507B50023154800930193804726
:1007D00014498847009A144B9A420AD1019A134946
:1007E000D2F1010338BF00234FF4000001934863A6
:1007F0000DE000980E49884209D1019A0B49D2F1C7
:10080000010338BF00234FF4000001930863009AEE
:10081000084B501C90FBF3F103FB11020092D9E747
:10082000810140000902400040420F0000120E40CA
:100830007F841E0080841E002DE9F8439846234BD8
:100840001C680646D4F848010F46914618B904F5CD
:10085000A670C4F8480141681F2916DD1C4818B964
:100860004FF0FF30BDE8F8834FF4C870AFF300805D
:100870000028F5D0D4F84821002545600260C4F86E
:100880004801C0F88851C0F88C51B6B14468D0F81E
:100890008811012200EB840302FA04F21143022EB4
:1008A000C3F88890C0F888111C46C3F8088104D1A9
:1008B000D0F88C311A43C0F88C2141688B1C4A1C3B
:1008C00040F8237042600020BDE8F8836C094000C6
:1008D0000000000070B5084B084CE01A841003EBD0
:1008E00084060025043D1CB172599047013CF9E78C
:1008F000BDE8704000F048B89409400098094000F5
:1009000038B50E4D0E4BE81A85100024AC4205D0C8
:100910000B4951F8242090470134F7E700F02AF8FA
:100920000849094A541AA5100024AC4205D0054BC9
:1009300053F8240080470134F7E738BD80094000B0
:10094000800940008009400088094000024B13B133
:10095000024800F005B8704700000000D5084000CC
:100960000146002002460346FFF766BF1000002044
:1009700043000000F8B500BFF8BC08BC9E467047B5
:100980004D09400049014000F8B500BFF8BC08BC63
:080990009E4670472101400062
:1009980000093D00000000001000002000000000D9
:1009A80000000000FC02002064030020CC030020AB
:1009B800000000000000000000000000000000002F
:1009C800000000000000000000000000000000001F
:1009D8000000000070094000000000000000000056
:1009E80000000000000000000000000000000000FF
:1009F80000000000000000000000000000000000EF
:100A080000000000000000000000000000000000DE
:100A180000000000000000000000000000000000CE
:100A280000000000000000000000000000000000BE
:100A380000000000000000000000000000000000AE
:100A4800000000000000000001000000000000009D
:100A58000E33CDAB34126DE6ECDE05000B00000062
:100A6800000000000000000000000000000000007E
:100A7800000000000000000000000000000000006E
:100A8800000000000000000000000000000000005E
:100A9800000000000000000000000000000000004E
:0400000500400611A0
:00000001FF
