:020000040040BA
:1000000020D6002021174000191740001917400082
:100010001917400019174000191740000000000090
:10002000000000000000000000000000411D400032
:1000300019174000000000003D1F4000791F4000DC
:1000400019174000191740001917400019174000F0
:1000500019174000191740001917400019174000E0
:10006000191740001917400019174000E512400009
:10007000011340001D1340001917400019174000DC
:1000800019174000191740001917400019174000B0
:1000900019174000191740001917400019174000A0
:1000A0001917400019174000191740001917400090
:1000B0001917400019174000191740001917400080
:1000C0001917400019174000191740001917400070
:1000D00008B50548054B191A062900D808BD044A79
:1000E000002AFBD09047F9E7B44C4000B74C4000E1
:1000F0000000000008B50748074B191A8A1002EBE8
:10010000D273591000D108BD044A002AFBD0904791
:10011000F9E700BFB44C4000B44C400000000000C0
:1001200010B5064C237843B9FFF7D2FF044810B14D
:100130000448AFF300800121217010BD400400206D
:1001400000000000B44C400008B5084B1BB1084843
:100150000849AFF300800848016811B1074A02B1AD
:100160009047BDE80840FFF7C5BF00BF0000000092
:10017000B44C400044040020B44C40000000000097
:1001800080B582B000AF7860786841F27163C0F2E8
:100190004003984707F10807BD4680BD80B500AF12
:1001A0004FF00B0040F28113C0F2400398474FF02C
:1001B0000C0040F28113C0F2400398474FF00D004D
:1001C00040F28113C0F24003984780BD80B48DB0E7
:1001D00000AF786039607B68FB623B68BB62FB6A9A
:1001E0007B627B6A4FEA53131A46FB6A3B623B6AA7
:1001F00003F01F034FF0010101FA03F3FA61BB6141
:10020000BB6A7B61FB693B613B6903F5001303F249
:1002100007734FEA4323FB607B6903F00803002B5D
:1002200003D0FB68BA695A6602E0FB68BA691A66CD
:100230007B6903F01003002B04D0FB68BA69C3F894
:10024000942003E0FB68BA69C3F890207B6903F04F
:100250002003002B03D0FB68BA691A6502E0FB6833
:10026000BA695A657B6903F0C003002B03D0FB68B1
:10027000BA691A6202E0FB68BA695A627B6903F0E4
:100280008003002B04D0FB68BA69C3F8842003E024
:10029000FB68BA69C3F880207B6903F00103002B77
:1002A00006D0FB681A6FBB691A43FB681A6707E040
:1002B000FB681A6FBB696FEA03031A40FB681A6791
:1002C0007B6903F00203002B06D0FB685A6FBB6901
:1002D0001A43FB685A6707E0FB685A6FBB696FEA0D
:1002E00003031A40FB685A6707F13407BD4680BC18
:1002F000704700BF80B48DB000AF78600B46FB70D4
:100300007B68FB62FB7887F82B30FB6A7B627B6A39
:100310003B623B6A4FEA5313FB61FB6903F5001331
:1003200003F207734FEA4323BB6197F82B30012B8D
:100330000CD1FB6A7B617B6903F01F034FF0010264
:1003400002FA03F31A46BB691A610FE097F82B30E3
:10035000002B0BD1FB6A3B613B6903F01F034FF09D
:10036000010202FA03F31A46BB695A61FB6AFB6099
:10037000FB6803F01F034FF0010202FA03F31A4671
:10038000BB69C3F8A02007F13407BD4680BC7047A5
:1003900080B48BB000AF78600B46FB707B687B62EB
:1003A000FB7887F823307B6AFB61FB69BB61BB6923
:1003B0004FEA53137B617B6903F5001303F2077364
:1003C0004FEA43233B6197F82330002B0CD07B6A24
:1003D000FB60FB6803F01F034FF0010202FA03F316
:1003E0001A463B691A630BE07B6ABB60BB6803F08B
:1003F0001F034FF0010202FA03F31A463B695A63E6
:1004000007F12C07BD4680BC704700BF80B500AF28
:1004100041F25040C4F20E0040F2F543C0F24003F6
:10042000984740F29D13C0F2400398474FF05700A1
:100430004FF0010140F29133C0F2400398474FF072
:1004400057004FF0010140F2F523C0F240039847F6
:100450004FF002004FF0000140F2F523C0F24003DC
:1004600098474FF002004FF0080140F2CD13C0F260
:10047000400398474FF054004FF0010140F2913390
:10048000C0F2400398474FF054004FF0010140F292
:10049000F523C0F2400398474FF010004FF00101E0
:1004A00040F29133C0F2400398474FF010004FF0F4
:1004B000010140F2F523C0F2400398474FF0560087
:1004C0004FF0010140F29133C0F2400398474FF0E2
:1004D00056004FF0010140F2F523C0F24003984767
:1004E0004FF002004FF0080140F2CD13C0F240037C
:1004F000984780BD80B483B000AF78607B684FF4CC
:1005000000425A6007F10C07BD4680BC704700BF2F
:1005100080B586B000AF78604FF00003FB6042F614
:100520005D73C0F2400398474AF26443C2F200038D
:100530001B68002B04D140F26573C0F2400398475A
:100540004AF26843C2F200031A687B681340002B2A
:1005500040F08B807B68002B12D044F64443C0F2FD
:1005600040031B887A68D3187B607B6803F007031D
:10057000002B05D07B6823F0070303F108037B60A1
:100580007B68002B71D040F20003C2F200031B68AD
:100590007A689A4269D84AF25C43C2F200033B612E
:1005A0004AF25C43C2F200031B687B6104E07B6992
:1005B0003B617B691B687B617B695A687B689A42F7
:1005C00003D27B691B68002BF1D14AF26443C2F26B
:1005D00000031B687A699A4247D03B691A6844F65F
:1005E0004443C0F240031B88D318FB607B691A6840
:1005F0003B691A607B695A687B68D21A44F64443A7
:10060000C0F240031B884FEA43039A4212D97A6929
:100610007B68D318BB607B695A687B68D21ABB6859
:100620005A607B697A685A60B86840F66103C0F224
:100630004003984740F20003C2F200031A687B6946
:100640005B68D21A40F20003C2F200031A607B69B1
:100650005A684AF26843C2F200031B681A437B6976
:100660005A607B694FF000021A6042F68173C0F253
:1006700040039847FB68002B04D144F28D73C0F20D
:1006800040039847FB68184607F11807BD4680BD30
:1006900080B584B000AF78607B68FB607B68002B1E
:1006A0005CD044F64443C0F240031B88C3F100030E
:1006B000FA68D318FB60FB68BB60BB685A684AF2F3
:1006C0006843C2F200031B681340002B05D141F6BA
:1006D0002173C0F240039847FEE7BB681B68002BFC
:1006E00005D041F62173C0F240039847FEE7BB688E
:1006F0005A684AF26843C2F200031B681340002B99
:100700002CD0BB681B68002B28D1BB685A684AF202
:100710006843C2F200031B686FEA03031A40BB6818
:100720005A6042F65D73C0F240039847BB685A684E
:1007300040F20003C2F200031B68D21840F200032B
:10074000C2F200031A60B86840F66103C0F24003C9
:10075000984742F68173C0F24003984707F11007AB
:10076000BD4680BD80B584B000AF3C4B23F007038D
:10077000FB604AF25C43C2F20003FA681A604AF274
:100780005C43C2F200034FF000025A6044F6484353
:10079000C0F240031B68FA68D318BB6044F64443B8
:1007A000C0F240031B88C3F10003BA68D318BB60D2
:1007B0004AF26443C2F20003BA681A604AF2644320
:1007C000C2F200031B6803F00703002B05D041F6BB
:1007D0002173C0F240039847FEE74AF26443C2F235
:1007E00000031B684FF000025A604AF26443C2F2F1
:1007F00000031B684FF000021A60FB687B6044F640
:100800004843C0F240031A6844F64443C0F2400330
:100810001B88D21A7B685A604AF26443C2F2000312
:100820001A687B681A6040F20003C2F200031A687B
:1008300044F64443C0F240031B88D21A40F200033E
:10084000C2F200031A604AF26843C2F200034FF09A
:1008500000421A6007F11007BD4680BD6404002005
:1008600080B485B000AF78604AF25C43C2F2000306
:10087000FB6002E0FB681B68FB60FB681A687B6832
:100880009A42F7D3FB68BB60FB685B68BA68D21812
:100890007B689A4208D1FB685A687B685B68D2180B
:1008A000FB685A60FB687B607B68BB607B685B6849
:1008B000BA68D218FB681B689A421ED1FB681A6896
:1008C0004AF26443C2F200031B689A420DD07B686F
:1008D0005A68FB681B685B68D2187B685A60FB68C3
:1008E0001B681A687B681A600BE04AF26443C2F224
:1008F00000031A687B681A6003E0FB681A687B686B
:100900001A60FA687B689A4202D0FB687A681A60BB
:1009100007F11407BD4680BC704700BF80B582B0A8
:1009200000AF78607B68072B4AD801A252F823F009
:10093000C1094000510940006109400071094000AF
:100940008109400091094000A1094000B10940001F
:100950004FF0000041F2E533C0F2400398472FE02A
:100960004FF0010041F2E533C0F24003984727E021
:100970004FF0000041F27143C0F2400398471FE07E
:100980004FF0100041F27143C0F24003984717E066
:100990004FF0200041F27143C0F2400398470FE04E
:1009A0004FF0000041F25153C0F24003984707E076
:1009B0004FF0010041F25153C0F24003984700BF8D
:1009C00007F10807BD4680BD80B582B000AF7860F2
:1009D0007B68072B2DD801A252F823F0FD094000B7
:1009E000030A4000030A40001B0A40001B0A4000A3
:1009F0001B0A40001B0A40001B0A40004FF0010385
:100A000019E041F23543C0F2400398470346002BFA
:100A10000CBF00230123DBB20DE041F2ED53C0F225
:100A2000400398470346002B0CBF00230123DBB291
:100A300001E04FF00003184607F10807BD4680BDEE
:100A400080B483B000AF78607B68072B34D801A2F4
:100A500052F823F0750A40007B0A4000810A4000EA
:100A6000870A4000910A40009B0A4000A50A400006
:100A7000AF0A40004FF4FA4320E04FF400431DE07A
:100A80004FF400431AE04FF41063C0F23D0315E049
:100A90004FF49053C0F27A0310E04FF4D853C0F2F1
:100AA000B7030BE04FF4D853C0F2B70306E04FF49E
:100AB000D853C0F2B70301E04FF00003184607F126
:100AC0000C07BD4680BC704780B582B000AF0346BE
:100AD000FB7100BFFB79184640F6C913C0F2400312
:100AE0009847034683F00103DBB2002BF2D107F1F4
:100AF0000807BD4680BD00BF80B586B000AFF86076
:100B00007A603B600B46FB72FB7A184640F6412345
:100B1000C0F24003984702467B68B2FBF3F37B6167
:100B20007B693A6802FB03F37B613B6803F1FF33A7
:100B30004FEA03424FF00003C0F2FF7313407A689C
:100B4000D2B2134343F47C52FB681A6007F11807D2
:100B5000BD4680BD80B582B000AF786039603B682B
:100B6000002B0ED141F20963C0F2400398474FF4C5
:100B70008063C4F20E037A68126842F000529A62EF
:100B80000BE041F23D63C0F2400398474FF48063AD
:100B9000C4F20E037A681268DA6207F10807BD46EC
:100BA00080BD00BF80B582B000AF78607B68002B4D
:100BB00006D141F22163C0F240039847034605E0A5
:100BC00041F25563C0F2400398470346184607F1C7
:100BD0000807BD4680BD00BF80B582B000AF0346A8
:100BE000FB71FB79A3F10303042B0ED8FB791846A4
:100BF00040F61D13C0F240039847FB79184640F6B3
:100C0000C923C0F24003984700E000BF07F108077E
:100C1000BD4680BD80B582B000AF786000BF786807
:100C200040F6A533C0F2400398470346002BF6D0A8
:100C30004FF00003184607F10807BD4680BD00BF0E
:100C400080B500AF4FF0060040F64123C0F24003EC
:100C50009847024613464FEA83039B184FEA8303E3
:100C6000184680BD80B500AF40F64143C0F2400356
:100C7000984703464FEA5303184680BD90B583B0AA
:100C800000AF40F66543C0F240039847034618465C
:100C900041F6A923C0F2400398474FF0060040F602
:100CA000D933C0F24003984707F1040318464FF0C8
:100CB00006014FF001024FF0140340F6F924C0F290
:100CC0004004A04707F1040318464FF0000140F626
:100CD0005533C0F2400398474FF0000040F61543EB
:100CE000C0F2400398474FF0100041F23933C0F290
:100CF0004003984700BF41F2F573C0F240039847A4
:100D000007F10C07BD4690BD80B485B000AFF86018
:100D1000B9607A607B68002B03D0FB68BA685A66BA
:100D200002E0FB68BA681A6607F11407BD4680BC8A
:100D3000704700BF80B487B000AFF860B9607A60D8
:100D4000FB687A685A64BB68B3F1C05F4DD0B3F1F9
:100D5000C05F08D8B3F1006F16D0B3F1805F2ED01A
:100D6000002B6DD068E0B3F1205F69D0B3F1205F54
:100D700003D8B3F1005F4ED05EE0B3F1405F5FD0C7
:100D8000B3F1605F5CD057E0FB681B6F7B61FB6871
:100D90001A6F7B686FEA03017B690B401A40FB689E
:100DA0001A67FB685B6F7B61FB685A6F7B686FEA51
:100DB00003017B690B401A40FB685A673CE0FB6803
:100DC0001B6F7B617A687B691A43FB681A67FB6853
:100DD0005B6F7B61FB685A6F7B686FEA03017B691D
:100DE0000B401A40FB685A6726E0FB681B6F7B616B
:100DF000FB681A6F7B686FEA03017B690B401A403E
:100E0000FB681A67FB685B6F7B617A687B691A43D2
:100E1000FB685A6710E0FB681B6F7B617A687B692F
:100E20001A43FB681A67FB685B6F7B617A687B69B2
:100E30001A43FB685A6700BFFB687A685A6000E093
:100E400000BF07F11C07BD4680BC704780B584B069
:100E500000AFF860B9607A60F868B96840F6397335
:100E6000C0F2400398477B6803F00103F868B96853
:100E70001A4640F60953C0F2400398477B6803F0D6
:100E80000A03002B03D0FB68BA681A6202E0FB6811
:100E9000BA685A627B6803F00203002B04D0FB6837
:100EA000BA68C3F8802008E07B6803F00803002BD1
:100EB00003D0FB68BA68C3F88420FB68BA685A613B
:100EC000FB68BA681A6007F11007BD4680BD00BF15
:100ED00080B584B000AFF860B9607A603B60F868B4
:100EE000B96840F63973C0F240039847F868B968AA
:100EF000BA6940F60953C0F2400398473B68002B9B
:100F000003D0FB68BA681A6502E0FB68BA685A65E4
:100F10007B68002B03D0FB68BA681A6302E0FB68A9
:100F2000BA685A63FB68BA681A61FB68BA681A60E3
:100F300007F11007BD4680BD80B483B000AF786074
:100F400039607B683A685A6407F10C07BD4680BC7B
:100F5000704700BF80B483B000AF78607B68DB6C03
:100F6000184607F10C07BD4680BC704780B483B0BB
:100F700000AF78607B689B6C184607F10C07BD4694
:100F800080BC704780B485B000AF78607B684FEA62
:100F9000531303F5001303F207734FEA4323FB6077
:100FA0007B6803F01F034FF0010202FA03F31A46B5
:100FB000FB681A6307F11407BD4680BC704700BF89
:100FC00080B485B000AF78607B684FEA531303F5B7
:100FD000001303F207734FEA4323FB607B6803F0BF
:100FE0001F034FF0010202FA03F31A46FB685A632B
:100FF00007F11407BD4680BC704700BF90B587B0AD
:1010000002AF786039607B684FEA531303F5001331
:1010100003F207734FEA4323FB603B6803F0F0439E
:10102000B3F1005F00F08680B3F1005F09D8B3F13F
:10103000805F37D0B3F1C05F58D0B3F1006F0DD0EF
:10104000CFE0B3F1405F00F0A980B3F1605F00F042
:10105000A580B3F1205F00F09180C2E07B6803F0CF
:101060001F034FF0010202FA03F3F8684FF000612A
:101070001A4640F63553C0F2400398477B6803F0A8
:101080001F034FF0010202FA03F31A463B6803F014
:101090000103F86811461A4640F60953C0F24003AE
:1010A0009847A1E07B6803F01F034FF0010202FAAA
:1010B00003F3F8684FF080511A4640F63553C0F2FA
:1010C000400398477B6803F01F034FF0010202FAC8
:1010D00003F31A463B6803F00103F86811461A4609
:1010E00040F60953C0F2400398477DE07B6803F067
:1010F0001F034FF0010202FA03F3F8684FF0C051EA
:101100001A4640F63553C0F2400398477B6803F017
:101110001F034FF0010202FA03F31A463B6803F083
:101120000103F86811461A4640F60953C0F240031D
:10113000984759E07B6803F01F034FF0010202FA61
:1011400003F3F8684FF000511A4640F63553C0F2E9
:10115000400398477B6803F01F034FF0010202FA37
:1011600003F31A463B6803F00103F86811461A4678
:1011700040F60953C0F24003984735E07B6803F01E
:101180001F034FF0010202FA03F3F86819463A68A8
:1011900040F64D63C0F24003984725E07B6803F0BA
:1011A0001F034FF0010202FA03F319463B6803F0F4
:1011B00060523B6803F00403002B0CBF00230123A3
:1011C000DBB2386800F0010000280CBF00200120CD
:1011D000C0B20090F86840F6D164C0F24004A04765
:1011E00002E04FF0000301E04FF00103184607F161
:1011F0001407BD4690BD00BF80B584B000AF7860D5
:101200003960786840F65573C0F240039847F8603B
:10121000786840F66D73C0F2400398470346FA6859
:101220001340FB60FB68002B57D04FF00003BB60FE
:1012300050E04AF26C43C2F20003BA684FEA02126D
:101240009B181A683B689A4240D14AF26C43C2F23A
:101250000003BA684FEA02129B1803F104031A68EC
:10126000FB681340002B31D04AF26C43C2F20003FA
:10127000BA684FEA02129B1803F10C031A684AF28B
:101280006C43C2F20003B9684FEA01115B18196898
:101290004AF26C43C2F20003B8684FEA00101B1810
:1012A00003F104031B680846194690474AF26C4351
:1012B000C2F20003BA684FEA02129B1803F104035A
:1012C0001B686FEA0303FA681340FB60BB6803F115
:1012D0000103BB60FB68002BABD107F11007BD46D3
:1012E00080BD00BF80B500AF4FF46060C4F20E0057
:1012F0004FF00B0141F2F913C0F24003984780BD53
:1013000080B500AF4FF48050C4F20E004FF00C01D6
:1013100041F2F913C0F24003984780BD80B500AF99
:101320004FF49050C4F20E004FF00D0141F2F9134A
:10133000C0F24003984780BD80B485B000AF7860AC
:101340004FF48063C4F20E034FF48062C4F20E02C5
:10135000126B22F070017A680A431A634FF400633B
:10136000FB6009E0FB68002B02D14FF0010333E082
:10137000FB6803F1FF33FB604FF48063C4F20E039C
:101380009B6E03F00803002BECD04FF48063C4F293
:101390000E034FF48062C4F20E02126B22F00302BD
:1013A00042F002021A634FF40063FB6009E0FB683D
:1013B000002B02D14FF001030EE0FB6803F1FF3375
:1013C000FB604FF48063C4F20E039B6E03F00803CE
:1013D000002BECD04FF00003184607F11407BD4670
:1013E00080BC704780B483B000AF78607B68012B0D
:1013F0000DD141F21043C4F20E0341F21042C4F287
:101400000E02926842F0254242F480129A6041F244
:101410001043C4F20E0341F21042C4F20E021268ED
:1014200042F0254242F008021A6007F10C07BD465F
:1014300080BC704780B400AF41F21043C4F20E0389
:101440005B6903F08003002B0BD04FF48063C4F280
:101450000E039B6E03F08003002B02D04FF00103BC
:1014600001E04FF000031846BD4680BC704700BF46
:1014700080B485B000AF78604FF00003FB604FF49C
:101480008063C4F20E031B6A03F00103002B14D027
:101490004FF48063C4F20E034FF48062C4F20E0274
:1014A000126A22F45C1222F0780279680A4342F44C
:1014B0005C1242F008021A6218E04FF00103FB6070
:1014C0004FF48062C4F20E024FF48063C4F20E0344
:1014D000196A4CF28603CFF6C8730B40796819433A
:1014E00043F60973C0F237030B43136200BF4FF496
:1014F0008063C4F20E039B6E03F40033002BF6D01E
:101500004FF48063C4F20E034FF48062C4F20E0203
:10151000126A22F09B7222F4803242F45C121A6248
:10152000FB68002B0FD04FF48063C4F20E034FF41E
:101530008062C4F20E02126A22F45C1222F00102EE
:1015400042F45C121A6207F11407BD4680BC704772
:1015500080B483B000AF78607B68002B14D04FF468
:101560008061C4F20E014FF48063C4F20E031B6A63
:101570004FF6FC72CFF6C8621A404FF00203C0F279
:10158000371313430B622BE04FF48061C4F20E015A
:101590004FF48063C4F20E031B6A4CF2FC02CFF6D8
:1015A000C8721A4043F60173C0F2370313430B624B
:1015B00000BF4FF48063C4F20E039B6E03F001037F
:1015C000002BF6D04FF48063C4F20E034FF4806218
:1015D000C4F20E02126A42F09B7242F480321A6226
:1015E00007F10C07BD4680BC704700BF80B400AF58
:1015F0004FF48063C4F20E039B6E03F480331846ED
:10160000BD4680BC704700BF80B400AF4FF480631C
:10161000C4F20E034FF000529A62BD4680BC704780
:1016200080B400AF4FF48063C4F20E039B6E03F0EE
:1016300002031846BD4680BC704700BF80B400AFAF
:101640004FF48063C4F20E034FF00002DA62BD462D
:1016500080BC704780B400AF4FF48063C4F20E03C7
:101660009B6E03F004031846BD4680BC704700BF64
:1016700080B483B000AF78607B68222B02D94FF032
:10168000010343E07B681F2B1CD84FF48063C4F236
:101690000E039A697B684FF0010101FA03F31A40C7
:1016A0007B684FF0010101FA03F39A422CD04FF40A
:1016B0008063C4F20E037A684FF0010101FA02F26E
:1016C0001A6121E07B68A3F120037B604FF4806303
:1016D000C4F20E03D3F808217B684FF0010101FA30
:1016E00003F31A407B684FF0010101FA03F39A42B9
:1016F0000AD04FF48063C4F20E037A684FF0010100
:1017000001FA02F2C3F800214FF00003184607F176
:101710000C07BD4680BC704780B400AFFEE700BF39
:1017200080B582B000AF44F6B443C0F240037B60A2
:1017300040F20003C2F200033B607A683B689A42C1
:1017400013D00BE07B681A683B681A603B6803F1B2
:1017500004033B607B6803F104037B603A6840F25A
:101760004043C2F200039A42ECD340F24043C2F23B
:1017700000033B6007E03B684FF000021A603B68E3
:1017800003F104033B603A684AF21C63C2F20003AF
:101790009A42F0D340F20003C0F240037B604FF462
:1017A0006D43CEF200037A6822F07F029A607A6875
:1017B0006FF060439A4212D97A684FF6FF73C2F213
:1017C00001039A420BD84FF46D43CEF200034FF45D
:1017D0006D42CEF20002926842F000529A6044F6E6
:1017E0009933C0F24003984744F2F163C0F24003DA
:1017F0009847FEE780B400AF4FF48063C4F20E0355
:101800001B6B03F00303032B00F2198101A151F8B4
:1018100023F000BF2518400057184000E918400089
:10182000E918400041F21043C4F20E035B6903F073
:101830008003002B07D040F20403C2F200034FF4F0
:1018400000421A60FCE040F20403C2F200034FF4CD
:10185000FA421A60F4E04FF48063C4F20E031B6A8C
:1018600003F08073002B09D040F20403C2F200039E
:101870004FF4D852C0F2B7021A60E1E040F204031C
:10188000C2F200034FF41062C0F23D021A604FF43E
:101890008063C4F20E031B6A03F07003102B04D0A4
:1018A000202B0FD0002B1DD01BE040F20403C2F20E
:1018B00000031B684FEA430240F20403C2F2000334
:1018C0001A6010E040F20403C2F200031A681346E3
:1018D0004FEA43039A1840F20403C2F200031A606D
:1018E00001E000E000BFABE04FF48063C4F20E0300
:1018F0001B6A03F08073002B09D040F20403C2F28C
:1019000000034FF4D852C0F2B7021A6034E040F23C
:101910000403C2F200034FF41062C0F23D021A60E9
:101920004FF48063C4F20E031B6A03F07003102BA4
:1019300004D0202B0FD0002B1DD01BE040F204035D
:10194000C2F200031B684FEA430240F20403C2F2F2
:1019500000031A6010E040F20403C2F200031A68A8
:1019600013464FEA43039A1840F20403C2F20003FD
:101970001A6001E000E000BF4FF48063C4F20E0380
:101980001B6B03F00303022B2CD14FF48063C4F2D2
:101990000E039A6A4FF00003C0F2FF7313404FEA40
:1019A000134303F1010240F20403C2F200031B6877
:1019B00003FB02F240F20403C2F200031A6040F299
:1019C0000403C2F200031A684FF48063C4F20E03EA
:1019D0009B6ADBB2B2FBF3F240F20403C2F20003F3
:1019E0001A602DE04FF48063C4F20E03DA6A4FF000
:1019F0000003C0F2FF7313404FEA134303F10102E7
:101A000040F20403C2F200031B6803FB02F240F23F
:101A10000403C2F200031A6040F20403C2F200039E
:101A20001A684FF48063C4F20E03DB6ADBB2B2FBC8
:101A3000F3F240F20403C2F200031A6000E000BFB8
:101A40004FF48063C4F20E031B6B03F07003702B22
:101A500012D140F20403C2F200031A684AF6AB2323
:101A6000CAF6AA23A3FB02134FEA530240F204036F
:101A7000C2F200031A6014E040F20403C2F2000351
:101A80001A684FF48063C4F20E031B6B03F07003FB
:101A90004FEA131322FA03F240F20403C2F20003E6
:101AA0001A60BD4680BC704780B483B000AF7860D8
:101AB0007A6842F6FF43C0F231139A4207D84FF4D6
:101AC0002063C4F20E034FF000021A6033E07A681C
:101AD00045F6FF13C0F262239A4207D84FF4206301
:101AE000C4F20E034FF480721A6024E07A6848F260
:101AF000FF63C0F293339A4207D84FF42063C4F2D5
:101B00000E034FF400721A6015E07A684BF2FF334F
:101B1000C0F2C4439A4207D84FF42063C4F20E03C4
:101B20004FF440721A6006E04FF42063C4F20E03D3
:101B30004FF480621A6007F10C07BD4680BC704705
:101B400080B483B000AF78607B6803F108027B68E3
:101B50005A607B684FF0FF329A607B6803F108029D
:101B60007B68DA607B6803F108027B681A617B6836
:101B70004FF000021A6007F10C07BD4680BC7047A9
:101B800080B483B000AF78607B684FF000021A61C8
:101B900007F10C07BD4680BC704700BF80B485B01C
:101BA00000AF786039607B685B68FB603B68FA680F
:101BB0005A60FB689A683B689A60FB689B683A6861
:101BC0005A60FB683A689A603B687A681A617B6879
:101BD0001B6803F101027B681A6007F11407BD4618
:101BE00080BC704780B485B000AF786039603B68D6
:101BF0001B68BB60BB68B3F1FF3F03D17B681B6907
:101C0000FB600DE07B6803F10803FB6002E0FB680A
:101C10005B68FB60FB685B681A68BB689A42F6D930
:101C2000FB685A683B685A603B685B683A689A6030
:101C30003B68FA689A60FB683A685A603B687A6861
:101C40001A617B681B6803F101027B681A6007F167
:101C50001407BD4680BC704780B485B000AF786083
:101C60007B685B687A6892689A607B689B687A6830
:101C700052685A607B681B69FB60FB685A687B6826
:101C80009A4203D17B689A68FB685A607B684FF080
:101C900000021A61FB681B6803F1FF32FB681A60DF
:101CA000FB681B68184607F11407BD4680BC7047E7
:101CB00080B485B000AFF860B9607A60FB68A3F1CA
:101CC0000403FB60FB684FF080721A60FB68A3F1AD
:101CD0000403FB60BA68FB681A60FB68A3F10403A5
:101CE000FB6041F61553C0F24003FA681360FB68CD
:101CF000A3F11403FB607A68FB681A60FB68A3F128
:101D00002003FB60FB68184607F11407BD4680BC42
:101D1000704700BF80B500AF40F20803C2F2000375
:101D20001B68B3F1FF3F05D041F62173C0F24003B9
:101D30009847FEE741F62173C0F240039847FEE75B
:101D4000064B19680868B0E8F00F80F309884FF077
:101D5000000080F311884EF00D0E7047E4A40020BF
:101D600003480068006880F3088862B600DF00BF9F
:101D700008ED00E080B584B000AF4FF46443CEF2CC
:101D80000003FB60FB681B78DBB2BB60FB684FF0B5
:101D9000FF021A70FB681B78DBB2FB71FB79DBB2C8
:101DA00023F05F03DAB24AF2DC43C2F200031A7096
:101DB0004AF2E043C2F200034FF007021A6011E05A
:101DC0004AF2E043C2F200031B6803F1FF324AF219
:101DD000E043C2F200031A60FB79DBB24FEA43032F
:101DE000DBB2FB71FB79DBB2DBB25BB2002BE7DB72
:101DF0004AF2E043C2F200031B684FEA03224AF2B0
:101E0000E043C2F200031A604AF2E043C2F2000368
:101E10001B6803F4E0624AF2E043C2F200031A6076
:101E2000BB68DAB2FB681A704EF62053CEF200039C
:101E30004EF62052CEF20002126842F470021A608E
:101E40004EF62053CEF200034EF62052CEF20002A0
:101E5000126842F070421A6041F6B573C0F2400356
:101E6000984740F20803C2F200034FF000021A60E4
:101E700041F66153C0F24003984741F61553C0F252
:101E8000400398474FF00003184607F11007BD467E
:101E900080BD00BF80B400AF4EF60453CEF2000305
:101EA0004FF080521A60BFF34F8FBFF36F8FBD4664
:101EB00080BC704780B500AF41F62173C0F240038B
:101EC000984740F20803C2F200031B6803F10102C5
:101ED00040F20803C2F200031A60BFF34F8FBFF352
:101EE0006F8F80BD80B500AF40F20803C2F20003DF
:101EF0001B6803F1FF3240F20803C2F200031A60CC
:101F000040F20803C2F200031B68002B06D14FF019
:101F1000000041F63573C0F24003984780BD00BF12
:101F2000EFF311804FF0A00181F3118870474FF05B
:101F30000003184680F31188704700BFEFF3098053
:101F40000C4B1A6820E9F00F10602DE908404FF0A3
:101F5000A00080F3118801F041FA4FF0000080F3F7
:101F60001188BDE8084019680868B0E8F00F80F3F0
:101F700009887047E4A4002080B500AF41F62173C2
:101F8000C0F24003984743F25913C0F24003984708
:101F90000346002B06D04EF60453CEF200034FF05A
:101FA00080521A604FF0000041F63573C0F24003D2
:101FB000984780BD80B400AF4EF21403CEF2000308
:101FC00040F20402C2F20002116844F6D352C1F298
:101FD0006202A2FB01024FEA921202F1FF321A6082
:101FE0004EF21003CEF200034FF007021A60BD4616
:101FF00080BC704790B583B000AFEFF305847C6080
:102000007B680F2B16D944F64C43C0F240031A6884
:102010007B68D3181B78FB704AF2DC43C2F20003E2
:102020001B78FA789A4205D241F62173C0F2400338
:102030009847FEE74EF60C53CEF200031B6803F4FC
:10204000E0624AF2E043C2F200031B689A4205D9FB
:1020500041F62173C0F240039847FEE707F10C07F1
:10206000BD4690BD80B584B000AF786039607B68B4
:10207000FB60FB68002B05D141F62173C0F24003E1
:102080009847FEE741F6B563C0F240039847FB6806
:102090001A68FB68DB6BF968096C01FB03F3D21863
:1020A000FB685A60FB684FF000029A63FB681A688D
:1020B000FB689A60FB681A68FB68DB6B03F1FF330F
:1020C000F968096C01FB03F3D218FB68DA60FB685E
:1020D0004FF0FF325A64FB684FF0FF329A643B685E
:1020E000002B15D1FB681B69002B23D0FB6803F183
:1020F0001003184643F2C163C0F2400398470346F9
:10210000012B17D141F69563C0F24003984711E0C7
:10211000FB6803F11003184641F64133C0F2400357
:102120009847FB6803F12403184641F64133C0F297
:102130004003984741F6E563C0F2400398474FF0EB
:102140000103184607F11007BD4680BD80B588B071
:1021500000AFF860B9601346FB714FF00003FB61FC
:10216000FB68002B39D04FF0500040F21153C0F201
:1021700040039847B861BB69002B2ED0FB68BA6852
:1021800002FB03F303F101037B61786940F2115311
:10219000C0F2400398470246BB691A60BB691B68DE
:1021A000002B14D0BB69FA68DA63BB69BA681A6499
:1021B000B8694FF0010142F26503C0F2400398474D
:1021C000BB694FF00002DA64BB69FB6105E0B869E6
:1021D00040F29163C0F240039847FB69002B05D1A0
:1021E00041F62173C0F240039847FEE7FB691846A9
:1021F00007F12007BD4680BD80B588B000AFF8600C
:10220000B9607A603B604FF00003FB61FB68BB6123
:10221000BB69002B05D141F62173C0F240039847FA
:10222000FEE7BB68002B03D1BB691B6C002B02D1FE
:102230004FF0010301E04FF00003002B05D141F600
:102240002173C0F240039847FEE73B68022B03D19D
:10225000BB69DB6B012B02D14FF0010301E04FF0B2
:102260000003002B06D141F62173C0F240039847CA
:10227000FEE700BF41F6B563C0F240039847BB6973
:102280009A6BBB69DB6B9A4202D33B68022B38D155
:10229000B869B9683A6842F2D573C0F2400398470A
:1022A000BB69DB6C002B0FD0B869396842F611337B
:1022B000C0F2400398470346012B1AD141F69563BB
:1022C000C0F24003984714E0BB695B6A002B10D052
:1022D000BB6903F12403184643F2C163C0F2400313
:1022E00098470346012B04D141F69563C0F24003A1
:1022F000984741F6E563C0F2400398474FF0010369
:102300008EE07B68002B07D141F6E563C0F2400305
:1023100098474FF0000383E0FB69002B0AD107F1D7
:102320001003184643F2BD73C0F2400398474FF0C4
:102330000103FB6141F6E563C0F24003984742F6B2
:102340005D73C0F24003984741F6B563C0F24003A5
:102350009847BB695B6CB3F1FF3F03D1BB694FF09A
:1023600000025A64BB699B6CB3F1FF3F03D1BB69A8
:102370004FF000029A6441F6E563C0F240039847CB
:1023800007F1100207F104031046194643F2FD73EA
:10239000C0F2400398470346002B34D1B86942F697
:1023A0005523C0F2400398470346002B1FD0BB695A
:1023B00003F110027B681046194643F23D53C0F208
:1023C00040039847B86942F61913C0F24003984792
:1023D00042F68173C0F2400398470346002B7FF416
:1023E00048AF41F69563C0F24003984741E7B869AA
:1023F00042F61913C0F24003984742F68173C0F2C7
:102400004003984735E7B86942F61913C0F2400314
:10241000984742F68173C0F2400398474FF000039B
:10242000184607F12007BD4680BD00BF80B588B0C3
:1024300000AFF860B9607A603B60FB68BB61BB6964
:10244000002B05D141F62173C0F240039847FEE707
:10245000BB68002B03D1BB691B6C002B02D14FF072
:10246000010301E04FF00003002B05D141F6217379
:10247000C0F240039847FEE73B68022B03D1BB69DB
:10248000DB6B012B02D14FF0010301E04FF00003A1
:10249000002B05D141F62173C0F240039847FEE7B7
:1024A00041F6F573C0F24003984741F62173C0F23C
:1024B000400398477861BB699A6BBB69DB6B9A42B2
:1024C00002D33B68022B44D1B869B9683A6842F23A
:1024D000D573C0F240039847BB699B6CB3F1FF3FD3
:1024E0002DD1BB69DB6C002B11D0B869396842F67D
:1024F0001133C0F2400398470346012B25D17B6876
:10250000002B22D07B684FF001021A601DE0BB69EE
:102510005B6A002B19D0BB6903F12403184643F210
:10252000C163C0F2400398470346002B0DD07B687F
:10253000002B0AD07B684FF001021A6005E0BB69EE
:102540009B6C03F10102BB699A644FF00103FB61CC
:1025500002E04FF00003FB61786941F63573C0F289
:1025600040039847FB69184607F12007BD4680BD28
:1025700080B58AB000AFF860B9607A603B604FF018
:1025800000037B62FB683B623B6A002B05D141F68E
:102590002173C0F240039847FEE7BB68002B03D1CC
:1025A0003B6A1B6C002B02D14FF0010301E04FF09E
:1025B0000003002B06D141F62173C0F24003984777
:1025C000FEE700BF41F6B563C0F2400398473B6A9F
:1025D0009B6B002B54D03B6ADB68FB61386AB9689F
:1025E00042F6C503C0F2400398473B68002B27D151
:1025F0003B6A9B6B03F1FF323B6A9A633B6A1B6841
:10260000002B07D143F69143C0F24003984702469E
:102610003B6A5A603B6A1B69002B29D03B6A03F175
:102620001003184643F2C163C0F2400398470346C3
:10263000012B1DD141F69563C0F24003984717E086
:102640003B6AFA69DA603B6A5B6A002B10D03B6A2E
:1026500003F12403184643F2C163C0F240039847D4
:102660000346002B04D041F69563C0F2400398471F
:1026700041F6E563C0F2400398474FF00103A4E040
:102680007B68002B07D141F6E563C0F24003984711
:102690004FF0000399E07B6A002B0AD107F1140385
:1026A000184643F2BD73C0F2400398474FF0010350
:1026B0007B6241F6E563C0F24003984742F65D73E2
:1026C000C0F24003984741F6B563C0F24003984713
:1026D0003B6A5B6CB3F1FF3F03D13B6A4FF00002F2
:1026E0005A643B6A9B6CB3F1FF3F03D13B6A4FF0E6
:1026F00000029A6441F6E563C0F24003984707F18F
:10270000140207F104031046194643F2FD73C0F2A8
:10271000400398470346002B4AD1386A42F61523F6
:10272000C0F2400398470346002B35D03B6A1B6834
:10273000002B11D141F6B563C0F2400398473B6AC4
:102740005B68184643F6F943C0F24003984741F6E8
:10275000E563C0F2400398473B6A03F124027B68BB
:102760001046194643F23D53C0F240039847386A79
:1027700042F61913C0F24003984742F68173C0F243
:10278000400398470346002B7FF41BAF41F6956347
:10279000C0F24003984714E7386A42F61913C0F2B2
:1027A0004003984742F68173C0F24003984708E718
:1027B000386A42F61913C0F24003984742F6817313
:1027C000C0F2400398474FF00003184607F128076E
:1027D000BD4680BD80B584B000AFF860B9607A6056
:1027E000FB681B6C002B10D1FB681B68002B5ED1B3
:1027F000FB685B68184643F64163C0F240039847A4
:10280000FB684FF000025A6051E07B68002B1DD13D
:10281000FB689A68FB681B6C1046B9681A4644F658
:102820000343C0F240039847FB689A68FB681B6C3F
:10283000D218FB689A60FB689A68FB685B689A42EA
:1028400035D3FB681A68FB689A6030E0FB68DA6889
:10285000FB681B6C1046B9681A4644F60343C0F285
:1028600040039847FB68DA68FB681B6CC3F1000300
:10287000D218FB68DA60FB68DA68FB681B689A426A
:1028800008D2FB685A68FB681B6CC3F10003D218BE
:10289000FB68DA607B68022B09D1FB689B6B002B1D
:1028A00005D0FB689B6B03F1FF32FB689A63FB6802
:1028B0009B6B03F10102FB689A6307F11007BD46A9
:1028C00080BD00BF80B582B000AF786039607B68A2
:1028D0001B68002B1CD07B68DA687B681B6CD218E5
:1028E0007B68DA607B68DA687B685B689A4203D34E
:1028F0007B681A687B68DA607B68DA687B681B6CC7
:10290000386811461A4644F60343C0F2400398471C
:1029100007F10807BD4680BD80B582B000AF786082
:1029200041F6B563C0F2400398472FE07B68DB6C4B
:10293000002B10D078684FF0000142F61133C0F23E
:10294000400398470346012B1AD143F6C903C0F24E
:102950004003984714E07B685B6A002B1BD07B68C0
:1029600003F12403184643F2C163C0F240039847C1
:102970000346002B04D043F6C903C0F24003984736
:102980007B689B6C03F1FF327B689A647B689B6C6D
:10299000002BCBDC00E000BF7B684FF0FF329A6475
:1029A00041F6E563C0F24003984741F6B563C0F2D3
:1029B000400398471AE07B681B69002B1BD07B689B
:1029C00003F11003184643F2C163C0F24003984775
:1029D0000346002B04D043F6C903C0F240039847D6
:1029E0007B685B6C03F1FF327B685A647B685B6CCD
:1029F000002BE0DC00E000BF7B684FF0FF325A6440
:102A000041F6E563C0F24003984707F10807BD4669
:102A100080BD00BF80B584B000AF786041F6B5637B
:102A2000C0F2400398477B689B6B002B03D14FF0AB
:102A30000103FB6002E04FF00003FB6041F6E56339
:102A4000C0F240039847FB68184607F11007BD46DF
:102A500080BD00BF80B584B000AF786041F6B5633B
:102A6000C0F2400398477B689A6B7B68DB6B9A42A5
:102A700003D14FF00103FB6002E04FF00003FB6065
:102A800041F6E563C0F240039847FB68184607F13A
:102A90001007BD4680BD00BF80B584B000AF786030
:102AA00039607B68FB6041F6B563C0F2400398472C
:102AB000FB685B6CB3F1FF3F03D1FB684FF0000292
:102AC0005A64FB689B6CB3F1FF3F03D1FB684FF086
:102AD00000029A6441F6E563C0F240039847FB6840
:102AE0009B6B002B09D1FB6803F12403184639685E
:102AF00043F21563C0F240039847F86842F6191391
:102B0000C0F24003984707F11007BD4680BD00BFE3
:102B100080B584B000AF786039607B68DB6CBB60E7
:102B20004FF00003FB60BB68002B05D141F6217319
:102B3000C0F240039847FEE7BB689A6BBB68DB6B4B
:102B40009A4205D341F62173C0F240039847FEE74D
:102B5000BB689A6BBB68DB6B9A421CD207F104031B
:102B6000B86819463A6842F2D573C0F240039847F4
:102B7000BB685B6A002B0ED0BB6803F124031846C8
:102B800043F2C163C0F2400398470346002B02D0D2
:102B90004FF00103FB60FB68184607F11007BD46C4
:102BA00080BD00BF90B58BB002AFF860B9603B60EC
:102BB0001346FB80FB68002B05D141F62173C0F260
:102BC00040039847FEE73B6B042B05D941F6217380
:102BD000C0F240039847FEE7FB881846B96B43F6FE
:102BE000DD33C0F240039847B861BB69002B00F0A9
:102BF000B280BB691A6BFB8803F1FF334FEA830392
:102C0000D3187B617B6923F007037B617B6903F049
:102C10000703002B05D041F62173C0F2400398470B
:102C2000FEE7FB880093B869B9683A6BFB6B43F623
:102C30001114C0F24004A0477869F9683A6841F677
:102C4000B143C0F2400398470246BB691A607B6BF0
:102C5000002B02D07B6BBA691A6041F6B563C0F2F3
:102C6000400398474AF2BC53C2F200031B6803F1C9
:102C700001024AF2BC53C2F200031A604AF2E44372
:102C8000C2F200031B68002B12D14AF2E443C2F2E5
:102C90000003BA691A604AF2BC53C2F200031B680F
:102CA000012B1BD143F6BD13C0F24003984715E03A
:102CB0004AF2C853C2F200031B68002B0ED14AF23D
:102CC000E443C2F200031B68DA6A3B6B9A4205D800
:102CD0004AF2E443C2F20003BA691A604AF2DC53D2
:102CE000C2F200031B6803F101024AF2DC53C2F294
:102CF00000031A60BB69DB6A4FF0010202FA03F2BB
:102D00004AF2C453C2F200031B681A434AF2C45386
:102D1000C2F200031A60BB69DA6A13464FEA830302
:102D20009B184FEA83034AF2E842C2F200029A1863
:102D3000BB6903F104031046194641F69D33C0F206
:102D4000400398474FF00103FB6141F6E563C0F291
:102D50004003984702E04FF0FF33FB61FB69012B12
:102D600014D14AF2C853C2F200031B68002B0DD0E5
:102D70004AF2E443C2F200031B68DA6A3B6B9A42F0
:102D800004D241F69563C0F240039847FB691846A8
:102D900007F12407BD4690BD80B586B000AF7860CE
:102DA00039604FF000037B617B68002B05D141F651
:102DB0002173C0F240039847FEE73B68002B05D122
:102DC00041F62173C0F240039847FEE742F65D7377
:102DD000C0F2400398474AF2C053C2F200031B6896
:102DE0003B617B681A683B68D318FB607B681A6894
:102DF0003B699A420CD97B681A68FB689A4213D9DE
:102E0000FA683B699A420FD94FF001037B610BE0EE
:102E10007B681A68FB689A4203D8FA683B699A4251
:102E200002D94FF001037B617B68FA681A607B6905
:102E3000002B2CD04AF2E443C2F200031B6803F1DA
:102E40000403184641F65943C0F24003984703462D
:102E5000002B16D14AF2E443C2F200031B68DB6A7E
:102E60004FF0010202FA03F36FEA03024AF2C4537D
:102E7000C2F200031B681A404AF2C453C2F20003B4
:102E80001A60F86843F64533C0F24003984742F6AB
:102E90008173C0F240039847B860BB68002B04D12F
:102EA00041F69563C0F24003984707F11807BD4605
:102EB00080BD00BF90B587B004AF4FF00003009312
:102EC0004FF0000301934FF0000302934FF0000313
:102ED000039343F6E100C0F2400044F65041C0F2D3
:102EE00040014FF082024FF0000342F6A534C0F2D9
:102EF0004004A04778607B68012B05D143F6297315
:102F0000C0F24003984778607B68012B18D141F6E6
:102F10002173C0F2400398474AF2C853C2F200033B
:102F20004FF001021A604AF2C053C2F200034FF0A0
:102F300000021A6041F67553C0F24003984708E05A
:102F40007B68002B05D141F62173C0F240039847FE
:102F5000FEE707F10C07BD4690BD00BF80B400AF8F
:102F60004AF2CC53C2F200031B6803F101024AF299
:102F7000CC53C2F200031A60BD4680BC704700BF4C
:102F800080B582B000AF4FF000037B604AF2CC53B3
:102F9000C2F200031B68002B05D141F62173C0F279
:102FA00040039847FEE741F6B563C0F240039847F7
:102FB0004AF2CC53C2F200031B6803F1FF324AF21B
:102FC000CC53C2F200031A604AF2CC53C2F200039F
:102FD0001B68002B40F09B804AF2BC53C2F20003F6
:102FE0001B68002B00F0938051E04AF27C53C2F240
:102FF0000003DB68DB683B603B6803F1180318469D
:1030000041F65943C0F2400398473B6803F104037B
:10301000184641F65943C0F2400398473B68DB6AC3
:103020004FF0010202FA03F24AF2C453C2F2000363
:103030001B681A434AF2C453C2F200031A603B6889
:10304000DA6A13464FEA83039B184FEA83034AF276
:10305000E842C2F200029A183B6803F104031046EA
:10306000194641F69D33C0F2400398473B68DA6A3F
:103070004AF2E443C2F200031B68DB6A9A4206D3B9
:103080004AF2D453C2F200034FF001021A604AF22E
:103090007C53C2F200031B68002BA6D14AF2D05326
:1030A000C2F200031B68002B22D01AE043F259132E
:1030B000C0F2400398470346002B06D04AF2D4538F
:1030C000C2F200034FF001021A604AF2D053C2F27A
:1030D00000031B6803F1FF324AF2D053C2F200032F
:1030E0001A604AF2D053C2F200031B68002BDDD1F4
:1030F0004AF2D453C2F200031B68012B07D14FF0F0
:1031000001037B6041F69563C0F24003984741F6A6
:10311000E563C0F2400398477B68184607F108074B
:10312000BD4680BD80B582B000AF41F6B563C0F248
:10313000400398474AF2C053C2F200031B687B6009
:1031400041F6E563C0F2400398477B68184607F1F3
:103150000807BD4680BD00BF80B586B000AF4FF008
:1031600000037B614AF2CC53C2F200031B68002BC0
:1031700040F012814AF2C053C2F200031B6803F10F
:1031800001024AF2C053C2F200031A604AF2C0536D
:10319000C2F200031B683B613B69002B55D14AF228
:1031A0007453C2F200031B681B68002B05D041F664
:1031B0002173C0F240039847FEE74AF27453C2F20B
:1031C00000031B68FB604AF27853C2F200031A68DE
:1031D0004AF27453C2F200031A604AF27853C2F200
:1031E0000003FA681A604AF2D853C2F200031B685F
:1031F00003F101024AF2D853C2F200031A604AF204
:103200007453C2F200031B681B68002B02D14FF0FD
:10321000010301E04FF00003002B07D040F20C0344
:10322000C2F200034FF0FF321A600EE04AF274530C
:10323000C2F200031B68DB68DB68BB60BB685A68CE
:1032400040F20C03C2F200031A6040F20C03C2F217
:1032500000031B683A699A427AD300E000BF4AF241
:103260007453C2F200031B681B68002B02D14FF09D
:10327000010301E04FF00003002B07D040F20C03E4
:10328000C2F200034FF0FF321A6061E04AF2745359
:10329000C2F200031B68DB68DB68BB60BB685B686D
:1032A0007B603A697B689A4206D240F20C03C2F214
:1032B00000037A681A604BE0BB6803F10403184608
:1032C00041F65943C0F240039847BB689B6A002B04
:1032D00008D0BB6803F11803184641F65943C0F201
:1032E00040039847BB68DB6A4FF0010202FA03F221
:1032F0004AF2C453C2F200031B681A434AF2C45391
:10330000C2F200031A60BB68DA6A13464FEA83030D
:103310009B184FEA83034AF2E842C2F200029A186D
:10332000BB6803F104031046194641F69D33C0F211
:1033300040039847BB68DA6A4AF2E443C2F20003EA
:103340001B68DB6A9A4289D34FF001037B6185E7F2
:103350004AF2E443C2F200031B68D96A4AF2E84227
:10336000C2F200020B464FEA83035B184FEA830365
:10337000D3181B68012B02D94FF001037B614AF27D
:10338000D053C2F200031B68002B16D144F2B57370
:10339000C0F24003984710E04AF2D053C2F2000353
:1033A0001B6803F101024AF2D053C2F200031A6013
:1033B00044F2B573C0F2400398474AF2D453C2F2C4
:1033C00000031B68002B02D04FF001037B617B6977
:1033D000184607F11807BD4680BD00BF90B585B0FF
:1033E00000AF4AF2CC53C2F200031B68002B07D097
:1033F0004AF2D453C2F200034FF001021A6098E07F
:103400004AF2D453C2F200034FF000021A604AF2AB
:10341000E443C2F200031B681A684AF2E443C2F2B2
:1034200000031B681B6B9A4212D84AF2E443C2F2B3
:1034300000031A684AF2E443C2F200031B6803F176
:1034400034031046194644F29D73C0F24003984776
:103450004AF2E443C2F200031B681B6B184644F6B1
:103460005841C0F240014FF0140244F6E533C0F277
:10347000400398470346002B12D04AF2E443C2F2BD
:1034800000031A684AF2E443C2F200031B6803F126
:1034900034031046194644F29D73C0F24003984726
:1034A0004AF2C453C2F200031B687B607B68B3FA24
:1034B00083F4FC70FB78C3F11F03FB604AF2E8421F
:1034C000C2F20002F9680B464FEA83035B184FEA29
:1034D0008303D3181B68002B05D141F62173C0F27A
:1034E00040039847FEE7FA6813464FEA83039B18A8
:1034F0004FEA83034AF2E842C2F200029B18BB6023
:10350000BB685B685A68BB685A60BB685A68BB682E
:1035100003F108039A4204D1BB685B685A68BB6830
:103520005A60BB685B68DA684AF2E443C2F200039F
:103530001A6007F11407BD4690BD00BF80B584B086
:1035400000AF786039607B68002B05D141F62173AC
:10355000C0F240039847FEE74AF2E443C2F2000398
:103560001B6803F118037868194641F6E533C0F289
:10357000400398474AF2E443C2F200031B6803F198
:103580000403184641F65943C0F2400398470346E6
:10359000002B16D14AF2E443C2F200031B68DB6A37
:1035A0004FF0010202FA03F36FEA03024AF2C45336
:1035B000C2F200031B681A404AF2C453C2F200036D
:1035C0001A603B68B3F1FF3F11D14AF2E443C2F203
:1035D00000031B6803F104034AF2A850C2F2000082
:1035E000194641F69D33C0F2400398470DE04AF278
:1035F000C053C2F200031A683B68D318FB60F86836
:1036000043F64533C0F24003984707F11007BD4623
:1036100080BD00BF80B584B000AF786039607B6842
:10362000002B05D141F62173C0F240039847FEE715
:103630004AF2E443C2F200031B6803F118037868FE
:10364000194641F69D33C0F2400398474AF2E443DD
:10365000C2F200031B6803F10403184641F6594304
:10366000C0F2400398470346002B16D14AF2E443C8
:10367000C2F200031B68DB6A4FF0010202FA03F397
:103680006FEA03024AF2C453C2F200031B681A40F5
:103690004AF2C453C2F200031A604AF2C053C2F2A3
:1036A00000031A683B68D318FB60F86843F645339B
:1036B000C0F24003984707F11007BD4680BD00BF28
:1036C00080B584B000AF78607B68DB68DB68BB6086
:1036D000BB68002B05D141F62173C0F24003984727
:1036E000FEE7BB6803F11803184641F65943C0F2E0
:1036F000400398474AF2CC53C2F200031B68002BE8
:1037000031D1BB6803F10403184641F65943C0F2B6
:1037100040039847BB68DB6A4FF0010202FA03F2EC
:103720004AF2C453C2F200031B681A434AF2C4535C
:10373000C2F200031A60BB68DA6A13464FEA8303D9
:103740009B184FEA83034AF2E842C2F200029A1839
:10375000BB6803F104031046194641F69D33C0F2DD
:10376000400398470CE0BB6803F118034AF27C5011
:10377000C2F20000194641F69D33C0F2400398475B
:10378000BB68DA6A4AF2E443C2F200031B68DB6AF0
:103790009A420AD34FF00103FB604AF2D453C2F2BB
:1037A00000034FF001021A6002E04FF00003FB60DB
:1037B000FB68184607F11007BD4680BD80B582B092
:1037C00000AF78607B68002B05D141F62173C0F211
:1037D00040039847FEE74AF2D853C2F200031A6842
:1037E0007B681A604AF2C053C2F200031A687B6811
:1037F0005A6007F10807BD4680BD00BF80B584B0A0
:1038000000AF786039607B68002B05D141F62173E9
:10381000C0F240039847FEE73B68002B05D141F614
:103820002173C0F240039847FEE741F6B563C0F24A
:10383000400398474AF2C053C2F200031B68BB60C2
:103840003B681B68B3F1FF3F03D14FF00003FB60FF
:103850002FE07B681A684AF2D853C2F200031B6853
:103860009A4208D07B685A68BB689A4203D84FF0E6
:103870000103FB601DE07B685B68BA68D21A3B6895
:103880001B689A4212D23B681A687B685968BB6809
:10389000CB1AD2183B681A60786843F2BD73C0F245
:1038A000400398474FF00003FB6002E04FF0010334
:1038B000FB6041F6E563C0F240039847FB68184699
:1038C00007F11007BD4680BD80B400AF4AF2D45363
:1038D000C2F200034FF001021A60BD4680BC70477F
:1038E00080B582B000AF786000E000BF43F685236A
:1038F000C0F2400398474AF2E843C2F200031B6853
:10390000012BF2D941F69563C0F240039847ECE7EA
:1039100080B586B000AFF860B9607A603B604FF068
:1039200000037B6113E0BA687B69D3181A78F968E1
:103930007B69CB1803F130031A71BA687B69D3181D
:103940001B78002B07D07B6903F101037B617B6946
:10395000092BE8D900E000BFFB684FF0000283F8B4
:103960003D207B68042B02D94FF004037B60FB6889
:103970007A68DA62FB687A681A64FB6803F1040308
:10398000184641F68133C0F240039847FB6803F1C3
:103990001803184641F68133C0F240039847FB688C
:1039A000FA681A617B68C3F10502FB689A61FB68DB
:1039B000FA685A6207F11807BD4680BD80B582B02B
:1039C00000AF4FF000037B6015E07A6813464FEAC2
:1039D00083039B184FEA83034AF2E842C2F20002D3
:1039E0009B18184641F64133C0F2400398477B6864
:1039F00003F101037B607B68042BE6D94AF24C504B
:103A0000C2F2000041F64133C0F2400398474AF247
:103A10006050C2F2000041F64133C0F240039847C3
:103A20004AF27C50C2F2000041F64133C0F240033A
:103A300098474AF29050C2F2000041F64133C0F27A
:103A4000400398474AF2A850C2F2000041F64133C1
:103A5000C0F2400398474AF27453C2F200034AF29C
:103A60004C52C2F200021A604AF27853C2F20003CA
:103A70004AF26052C2F200021A6007F10807BD461E
:103A800080BD00BF80B582B000AF4FE042F65D73ED
:103A9000C0F2400398474AF29053C2F200031B68F9
:103AA000002B14BF00230123DBB27B6042F681733D
:103AB000C0F2400398477B68002B37D141F6B563CD
:103AC000C0F2400398474AF29053C2F20003DB6809
:103AD000DB683B603B6803F10403184641F6594339
:103AE000C0F2400398474AF2BC53C2F200031B687D
:103AF00003F1FF324AF2BC53C2F200031A604AF2E9
:103B0000A453C2F200031B6803F1FF324AF2A4532C
:103B1000C2F200031A6041F6E563C0F24003984721
:103B2000386843F66543C0F2400398474AF2A4530D
:103B3000C2F200031B68002BA8D107F10807BD469D
:103B400080BD00BF80B582B000AF78604AF2E44328
:103B5000C2F200031B687A685A604AF2C053C2F28C
:103B600000031B687A689A4213D24AF27853C2F271
:103B700000031A684AF2E443C2F200031B6803F12F
:103B800004031046194641F6E533C0F24003984756
:103B900020E04AF27453C2F200031A684AF2E44386
:103BA000C2F200031B6803F104031046194641F6F4
:103BB000E533C0F24003984740F20C03C2F2000321
:103BC0001B687A689A4205D240F20C03C2F20003E5
:103BD0007A681A6007F10807BD4680BD80B584B0D9
:103BE00000AF03463960FB804FF0440040F21153B0
:103BF000C0F240039847F860FB68002B2CD03B686C
:103C0000002B0AD1FB884FEA8303184640F2115378
:103C1000C0F240039847034600E03B68FA6813632C
:103C2000FB681B6B002B09D1F86840F29163C0F26E
:103C3000400398474FF00003FB600DE0FB681A6BF0
:103C4000FB884FEA830310464FF0A5011A4644F65D
:103C50001543C0F240039847FB68184607F1100768
:103C6000BD4680BD80B582B000AF78607B681B6BBD
:103C7000184640F29163C0F240039847786840F2DA
:103C80009163C0F24003984707F10807BD4680BD25
:103C900080B483B000AF4AF2E443C2F200031B6871
:103CA0007B607B68184607F10C07BD4680BC7047F7
:103CB00080B483B000AF4AF2C853C2F200031B685D
:103CC000002B03D14FF000037B600DE04AF2CC5390
:103CD000C2F200031B68002B03D14FF001037B608D
:103CE00002E04FF002037B607B68184607F10C0787
:103CF000BD4680BC704700BF80B584B000AF78601F
:103D00007B68FB607B68002B00F09580FB68DA6ABB
:103D10004AF2E443C2F200031B68DB6A9A4280F075
:103D20008A804AF2E443C2F200031B68DB6AC3F1F3
:103D30000502FB689A61FB685969FB68DA6A1346F9
:103D40004FEA83039B184FEA83034AF2E842C2F228
:103D500000029B18994202D14FF0010301E04FF09D
:103D60000003002B5FD0FB6803F10403184641F603
:103D70005943C0F2400398470346002B22D1FB6809
:103D8000D96A4AF2E842C2F200020B464FEA8303C4
:103D90005B184FEA8303D3181B68002B12D1FB6812
:103DA000DB6A4FF0010202FA03F36FEA03024AF200
:103DB000C453C2F200031B681A404AF2C453C2F251
:103DC00000031A604AF2E443C2F200031B68DA6A95
:103DD000FB68DA62FB68DB6A4FF0010202FA03F269
:103DE0004AF2C453C2F200031B681A434AF2C45396
:103DF000C2F200031A60FB68DA6A13464FEA8303D3
:103E00009B184FEA83034AF2E842C2F200029A1872
:103E1000FB6803F104031046194641F69D33C0F2D6
:103E20004003984707E04AF2E443C2F200031B68EC
:103E3000DA6AFB68DA6207F11007BD4680BD00BF91
:103E400080B584B000AF78607B68FB607B68002B36
:103E500066D0FB68DA6AFB681B6C9A4260D0FB682C
:103E600003F10403184641F65943C0F24003984752
:103E70000346002B22D1FB68D96A4AF2E842C2F21B
:103E800000020B464FEA83035B184FEA8303D31803
:103E90001B68002B12D1FB68DB6A4FF0010202FAAB
:103EA00003F36FEA03024AF2C453C2F200031B6831
:103EB0001A404AF2C453C2F200031A60FB681A6C3B
:103EC000FB68DA62FB68DB6AC3F10502FB689A6192
:103ED000FB68DB6A4FF0010202FA03F24AF2C453B4
:103EE000C2F200031B681A434AF2C453C2F2000331
:103EF0001A60FB68DA6A13464FEA83039B184FEA9D
:103F000083034AF2E842C2F200029A18FB6803F106
:103F100004031046194641F69D33C0F2400398470A
:103F200007F11007BD4680BD90B587B004AF4FF0D4
:103F300000037B6044F27153C0F2400398474AF299
:103F40001063C2F200031B68002B1DD04FF0020368
:103F500000934FF0000301934FF0000302934FF0E2
:103F60000003039344F20110C0F2400044F66C4198
:103F7000C0F240014FF482724FF0000342F6A534C4
:103F8000C0F24004A04778607B68002B05D141F661
:103F90002173C0F240039847FEE77B68184607F19B
:103FA0000C07BD4690BD00BF90B589B000AFF8606A
:103FB000B9607A603B604FF00003FB614AF2106326
:103FC000C2F200031B68002B49D0BB683B617B68D1
:103FD0007B61FB68BB613B68002B2ED143F6B1438C
:103FE000C0F2400398470346012B12D14AF21063F6
:103FF000C2F200031A6807F11003104619463A6B23
:104000004FF0000342F2F914C0F24004A047F861F7
:1040100025E04AF21063C2F200031A6807F11003A8
:10402000104619464FF000024FF0000342F2F91417
:10403000C0F24004A047F86111E04AF21063C2F2F6
:1040400000031A6807F11003104619463A684FF04A
:10405000000342F22D44C0F24004A047F861FB691E
:10406000184607F12407BD4690BD00BF90B587B044
:1040700002AF786039604AF20863C2F200031B683D
:10408000DB68DB68FB60FB6803F10403184641F65C
:104090005943C0F240039847FB68DB69012B27D1E5
:1040A000FB689A697B68D318F86819463A687B6898
:1040B00044F29524C0F24004A0470346012B17D1D7
:1040C0004FF000030093F8684FF000017A684FF05A
:1040D000000343F6A974C0F24004A047B860BB686F
:1040E000002B05D141F62173C0F240039847FEE74B
:1040F000FB685B6AF868984707F11407BD4690BDF6
:1041000080B584B000AF786007F10803184644F228
:10411000DD13C0F240039847F860BB68F8681946A1
:1041200044F23913C0F24003984744F23533C0F2E9
:1041300040039847E8E700BF80B584B000AF7860DF
:10414000396042F65D73C0F24003984707F10803F7
:10415000184644F23123C0F240039847F860BB6828
:10416000002B30D13B68002B10D17A68FB689A4253
:104170000CD842F68173C0F2400398477868F9681A
:1041800044F26D03C0F24003984723E04AF2106303
:10419000C2F200031A687968FB68CB1A1046194608
:1041A00042F69923C0F24003984742F68173C0F269
:1041B000400398470346002B0BD141F69563C0F2AC
:1041C0004003984705E042F68173C0F240039847E8
:1041D00000E000BF07F11007BD4680BD80B485B088
:1041E00000AF78604AF20863C2F200031B681B68E4
:1041F000002B14BF00230123DBB21A467B681A6030
:104200007B681B68002B08D14AF20863C2F20003E6
:104210001B68DB681B68FB6002E04FF00003FB607B
:10422000FB68184607F11407BD4680BC704700BF05
:1042300080B584B000AF786043F22513C0F240032C
:104240009847F8604AF21463C2F200031B68FA68E8
:104250009A420FD24AF21463C2F200031B68184656
:1042600044F27143C0F2400398477B684FF001026B
:104270001A6003E07B684FF000021A604AF2146390
:10428000C2F20003FA681A60FB68184607F11007CB
:10429000BD4680BD80B586B000AFF860B9607A6079
:1042A0003B604FF000037B61FB68BA685A60FB68B3
:1042B000FA681A61BA687B689A421AD87A683B68C9
:1042C000D21AFB689B699A4203D34FF001037B61CA
:1042D0002AE04AF20C63C2F200031A68FB6803F199
:1042E00004031046194641F6E533C0F240039847EF
:1042F0001AE07A683B689A4207D2BA683B689A42E9
:1043000003D34FF001037B610EE04AF20863C2F26F
:1043100000031A68FB6803F104031046194641F6CE
:10432000E533C0F2400398477B69184607F1180748
:10433000BD4680BD90B58BB002AF7EE03B69FB61AE
:10434000FB695B69002B08D0FB6903F10403184685
:1043500041F65943C0F24003984707F10403184659
:1043600044F23123C0F240039847B861BB68032B85
:1043700060D801A252F823F0894340003544400040
:10438000F143400027444000FA68FB699B69D2185A
:10439000FB68F8691146BA6944F29524C0F24004FA
:1043A000A0470346012B47D1FB695B6AF869984730
:1043B000FB69DB69012B3FD1FA68FB699B69D31864
:1043C0004FF000020092F8694FF000011A464FF0DA
:1043D000000343F6A974C0F24004A04778617B69EA
:1043E000002B29D141F62173C0F240039847FEE724
:1043F000FA68FB699A61FB699B69002B05D141F65C
:104400002173C0F240039847FEE7FB699A69BB69D4
:10441000D318F8691946BA69BB6944F29524C0F209
:104420004004A04709E0F86940F29163C0F24003FC
:10443000984702E000BF00E000BF4AF21063C2F2FA
:1044400000031A6807F10803104619464FF00002EE
:104450004FF0000342F27154C0F24004A0470346FB
:10446000002B7FF46BAF07F12407BD4690BD00BF62
:1044700090B58BB002AF786057E04AF20863C2F2A1
:1044800000031B68DB681B68FB614AF20863C2F229
:1044900000031B68DB68DB68BB61BB6903F10403D5
:1044A000184641F65943C0F240039847BB695B6A1E
:1044B000B8699847BB69DB69012B36D1BB699A693A
:1044C000FB69D3187B617A69FB699A4215D9BB698C
:1044D0007A695A60BB69BA691A614AF20863C2F222
:1044E00000031A68BB6903F104031046194641F63C
:1044F000E533C0F24003984717E04FF00003009304
:10450000B8694FF00001FA694FF0000343F6A9744F
:10451000C0F24004A04738613B69002B05D141F649
:104520002173C0F240039847FEE74AF20863C2F2E3
:1045300000031B681B68002B9FD14AF20863C2F27C
:1045400000031B68FB604AF20C63C2F200031A68A6
:104550004AF20863C2F200031A604AF20C63C2F224
:104560000003FA681A6007F12407BD4690BD00BF3A
:1045700080B500AF41F6B563C0F2400398474AF2F8
:104580001063C2F200031B68002B34D14AF2E050E2
:10459000C2F2000041F64133C0F2400398474AF2AC
:1045A000F450C2F2000041F64133C0F24003984794
:1045B0004AF20863C2F200034AF2E052C2F2000279
:1045C0001A604AF20C63C2F200034AF2F452C2F2D9
:1045D00000021A604FF005004FF00C014FF000028E
:1045E00042F24D13C0F24003984702464AF210636C
:1045F000C2F200031A6041F6E563C0F24003984737
:1046000080BD00BF80B485B000AF78607B6803F0E8
:104610000703FB604FF46D43CEF20003DB68BB6021
:10462000BA684FF6FF031340BB60FB684FEA0322F2
:10463000BB68134343F0BF6343F40033BB604FF4E4
:104640006D43CEF20003BA68DA6007F11407BD4685
:1046500080BC704780B48DB000AF78600B46FB70B3
:104660007B68FB62FB7887F82B30FB6A7B627B6A96
:104670003B623B6A4FEA5313FB61FB6903F500138E
:1046800003F207734FEA4323BB6197F82B30012BEA
:104690000CD1FB6A7B617B6903F01F034FF00102C1
:1046A00002FA03F31A46BB691A610FE097F82B3040
:1046B000002B0BD1FB6A3B613B6903F01F034FF0FA
:1046C000010202FA03F31A46BB695A61FB6AFB60F6
:1046D000FB6803F01F034FF0010202FA03F31A46CE
:1046E000BB69C3F8A02007F13407BD4680BC704702
:1046F00080B582B000AF4FF000033B604FF0000385
:104700007B600AE03B68002B14BF00230123DBB26F
:104710003B607B6803F101037B607A6840F2E7331A
:104720009A42EFDD44F25973C0F2400398474FF0CC
:1047300057004FF0010144F25563C0F2400398471F
:1047400044F2C173C0F2400398474FF0000318468B
:1047500007F10807BD4680BD80B500AF40F67D4338
:10476000C0F2400398474FF0000044F20563C0F2E6
:104770004003984740F20D43C0F24003984744F687
:10478000B513C0F24003984780BD00BF80B500AFAD
:1047900041F62173C0F240039847FEE780B582B02E
:1047A00000AF7860396041F62173C0F2400398474A
:1047B000FEE700BF80B400AFBD4680BC704700BFBD
:1047C00090B585B004AF4FF001004FF004014FF0F9
:1047D000000242F24D13C0F24003984702464AF2EB
:1047E0001863C2F200031A604AF21863C2F20003AF
:1047F0001B68002B3ED04FF0020300934FF00003E4
:1048000001934FF0000302934FF00003039344F62B
:10481000E500C0F2400044F67441C0F240014FF0A0
:1048200082024FF0220342F6A534C0F24004A047B2
:104830004FF0010300934FF0000301934FF000038A
:1048400002934FF00003039344F67900C0F2400056
:1048500044F67841C0F240014FF0820241F2111358
:1048600042F6A534C0F24004A04742F6B563C0F258
:1048700040039847FEE700BF90B585B000AF786071
:104880004FF06403BB607A6841F211139A4205D07D
:1048900041F62173C0F240039847FEE743F2251327
:1048A000C0F2400398470346FB6007F10C0318462B
:1048B0004FF0C80142F69953C0F2400398474AF2BC
:1048C0001863C2F200031A6807F10803104619467C
:1048D0004FF000024FF0000342F2F914C0F240041E
:1048E000A047E2E790B585B000AF78607B68222BE7
:1048F00006D041F62173C0F240039847FEE700BF9F
:104900004AF21863C2F200031A6807F10C0310465A
:1049100019464FF0FF324FF0000342F27154C0F2DB
:104920004004A047FB68642BE9D14FF0000044F637
:104930009923C0F2400398474FF00003FB60DEE785
:1049400080B48BB000AF78607B687B627B6A3B622F
:104950003B6AFB61FB694FEA5313BB61BB6903F51B
:10496000001303F207734FEA43237B617B6A3B61C9
:104970003B6903F01F034FF0010202FA03F3FB60EF
:104980007B69DA6B7B6ABB60BB6803F01F034FF087
:10499000010101FA03F31340002B03D07B69FA688D
:1049A0005A6302E07B69FA681A6307F12C07BD4677
:1049B00080BC704780B582B000AF4FF000037B60D1
:1049C0001AE044F67C43C0F240037A6853F8223080
:1049D00018464FF0605140F6FD73C0F2400398470F
:1049E00078684FF0000144F60923C0F2400398476D
:1049F0007B6803F101037B607B68022BE1D907F13F
:104A00000807BD4680BD00BF80B582B000AF7860AA
:104A100039607B68022B3BD87B68002B06D13B6852
:104A2000002B14BF00230123DBB23B603B68002B4B
:104A300017D041F6B563C0F24003984744F67C4373
:104A4000C0F240037A6853F82230184640F6C1732A
:104A5000C0F24003984741F6E563C0F2400398472F
:104A600016E041F6B563C0F24003984744F67C4334
:104A7000C0F240037A6853F82230184640F6857336
:104A8000C0F24003984741F6E563C0F240039847FF
:104A900007F10807BD4680BD80B582B000AF7860E1
:104AA0007B68022B10D841F6B563C0F240039847EB
:104AB0004FF0570044F64113C0F24003984741F6C7
:104AC000E563C0F24003984707F10807BD4680BD83
:104AD0002DE9F8439846234B1C680646D4F8480154
:104AE0000F46914618B904F5A670C4F8480141680C
:104AF0001F2916DD1C4818B94FF0FF30BDE8F883B8
:104B00004FF4C870AFF300800028F5D0D4F84821E6
:104B1000002545600260C4F84801C0F88851C0F81B
:104B20008C51B6B14468D0F88811012200EB84039F
:104B300002FA04F21143022EC3F88890C0F88811DB
:104B40001C46C3F8088104D1D0F88C311A43C0F850
:104B50008C2141688B1C4A1C40F823704260002065
:104B6000BDE8F883884C40000000000070B5084B99
:104B7000084CE01A841003EB84060025043D1CB1A8
:104B800072599047013CF9E7BDE8704000F08AB8DF
:104B9000B04C4000B44C400038B50E4D0E4BE81AF6
:104BA00085100024AC4205D00B4951F824209047D1
:104BB0000134F7E700F06CF80849094A541AA510C7
:104BC0000024AC4205D0054B53F824008047013443
:104BD000F7E738BD9C4C40009C4C40009C4C40008A
:104BE000A44C400030B50023934208D0C55C01338B
:104BF000CC1814F8014CA542F6D0281B30BD00207B
:104C000030BD10B50023934203D0CC5CC4540133B3
:104C1000F9E710BD82180346934202D003F8011B46
:104C2000FAE77047024B13B1024800F005B870472D
:104C3000000000006D4B4000014600200246034684
:104C4000FFF746BF08000000F89F0000F0E300E017
:104C500049444C4500000000A5A5A5A5A5A5A5A50E
:104C6000A5A5A5A5A5A5A5A5A5A5A5A5546D722035
:104C7000537663005278000054580000570000003B
:104C800057000000570000001800002043000000FB
:104C9000F8B500BFF8BC08BC9E467047254C4000E4
:104CA00049014000F8B500BFF8BC08BC9E467047FB
:044CB000210140009E
:104CB400F89F000000093D00AAAAAAAAFFFFFFFF6F
:104CC4001800002000000000000000000403002081
:104CD4006C030020D403002000000000000000004A
:104CE40000000000000000000000000000000000C0
:104CF4000000000000000000000000008C4C400098
:104D0400000000000000000000000000000000009F
:104D1400000000000000000000000000000000008F
:104D2400000000000000000000000000000000007F
:104D3400000000000000000000000000000000006F
:104D4400000000000000000000000000000000005F
:104D5400000000000000000000000000000000004F
:104D6400000000000000000000000000000000003F
:104D740001000000000000000E33CDAB34126DE6DC
:104D8400ECDE05000B000000000000000000000045
:104D9400000000000000000000000000000000000F
:104DA40000000000000000000000000000000000FF
:104DB40000000000000000000000000000000000EF
:104DC40000000000000000000000000000000000DF
:04000005004017217F
:00000001FF
