:020000040040BA
:10000000A8D70020E5264000DD264000DD26400080
:10001000DD264000DD264000DD2640000000000017
:10002000000000000000000000000000052D40005E
:10003000DD26400000000000012F40003D2F400061
:10004000DD264000DD264000DD264000DD264000A4
:10005000DD264000DD264000DD264000DD26400094
:10006000DD264000DD264000DD264000A9224000BC
:10007000C5224000E1224000DD264000C9164000B4
:10008000DD264000DD264000DD264000DD26400064
:10009000DD264000DD264000DD264000DD26400054
:1000A000DD264000DD264000DD264000DD26400044
:1000B000DD264000DD264000DD264000DD26400034
:1000C000DD264000DD264000DD264000DD26400024
:1000D00008B50548054B191A062900D808BD044A79
:1000E000002AFBD09047F9E7289840002B98400061
:1000F0000000000008B50748074B191A8A1002EBE8
:10010000D273591000D108BD044A002AFBD0904791
:10011000F9E700BF28984000289840000000000040
:1001200010B5064C237843B9FFF7D2FF044810B14D
:100130000448AFF300800121217010BD500400205D
:10014000000000002898400008B5084B1BB1084883
:100150000849AFF300800848016811B1074A02B1AD
:100160009047BDE80840FFF7C5BF00BF0000000092
:100170002898400054040020289840000000000007
:1001800080B489B000AFF860B9607A60BB684FEAAC
:1001900003127B689A4203D84FF01003FB6102E020
:1001A0004FF00803FB617B684FEAC302FB69B96843
:1001B00001FB03F34FEA5303D218FB69B96801FB53
:1001C00003F3B2FBF3F3BB61BB694FEAD3037B617B
:1001D000BB6903F007033B617B69002B04D07A699C
:1001E0004FF6FF739A4202D94FF0010311E0FB6909
:1001F000082B05D1FB685B6843F40022FB685A605A
:100200003B694FEA03427B691A43FB681A624FF06D
:100210000003184607F12407BD4680BC704700BFA5
:1002200080B582B000AF7860786840F22553C0F2A4
:10023000400398477B684FF000025A607B684FF09C
:1002400000025A627B684FF000029A62786840F2BE
:100250005D33C0F240039847786840F29533C0F2AE
:1002600040039847786840F21943C0F2400398472A
:10027000786840F25143C0F240039847786840F2F2
:100280003543C0F24003984707F10807BD4680BDDB
:1002900080B584B000AFF860B9607A60F86840F269
:1002A0002123C0F24003984740F26C43C2F200039E
:1002B0004FF000021A60BB68002B0CD0BB681B68B3
:1002C000F86819467A6840F28113C0F240039847F3
:1002D0000346002B02D04FF001032BE0BB685A68A5
:1002E000BB689B681A43BB681B691A43BB68DB6821
:1002F0001A4340F26C43C2F200031B681A4340F2F7
:100300006C43C2F200031A6040F26C43C2F2000375
:100310001A6840F26C43C2F200031A60FB685A6824
:1003200040F26C43C2F200031B681A43FB685A6038
:100330004FF00003184607F11007BD4680BD00BF0F
:1003400080B483B000AF78607B684FF040021A60E1
:1003500007F10C07BD4680BC704700BF80B483B076
:1003600000AF78607B684FF088021A6007F10C07D5
:10037000BD4680BC704700BF80B483B000AF7860DA
:100380007B684FF010021A6007F10C07BD4680BC75
:10039000704700BF80B483B000AF78607B684FF0D7
:1003A00024021A6007F10C07BD4680BC704700BFED
:1003B00080B483B000AF786039607B683A689A6037
:1003C00007F10C07BD4680BC704700BF80B483B006
:1003D00000AF786039607B683A68DA6007F10C0733
:1003E000BD4680BC704700BF80B483B000AF78606A
:1003F0007B681B69184607F10C07BD4680BC704737
:1004000080B483B000AF78607B685B69184607F101
:100410000C07BD4680BC704780B483B000AF7860E5
:100420007B684FF480721A6007F10C07BD4680BCF0
:10043000704700BF80B483B000AF78607B684FF432
:1004400000321A6007F10C07BD4680BC704700BF40
:1004500080B483B000AF78607B684FF400221A60EC
:1004600007F10C07BD4680BC704700BF80B485B063
:1004700000AF786039604FF47A73FB600EE0FB6880
:10048000002B14BF00230123DBB2FA6802F1FF3214
:10049000FA60002B02D04FF001030EE07B685B692D
:1004A00003F00203002BEAD03B684FEAC3534FEA44
:1004B000D3537A68D3614FF00003184607F114074D
:1004C000BD4680BC704700BF80B485B000AF786087
:1004D00039604FF47A73FB600EE0FB68002B14BFA9
:1004E00000230123DBB2FA6802F1FF32FA60002B2D
:1004F00002D04FF001030FE07B685B6903F001035A
:10050000002BEAD07B689B694FEAC3534FEAD35371
:100510003A6813604FF00003184607F11407BD4610
:1005200080BC704780B483B000AF78607A684FF4C5
:100530008243C5F25353C2F8E43007F10C07BD46BD
:1005400080BC704780B586B000AF78604FF0000384
:10055000FB6044F6F903C0F2400398474AF278433F
:10056000C2F200031B68002B04D140F29973C0F261
:10057000400398474AF27C43C2F200031A687B6842
:100580001340002B40F08B807B68002B12D049F287
:100590008863C0F240031B887A68D3187B607B684D
:1005A00003F00703002B05D07B6823F0070303F15A
:1005B00008037B607B68002B71D040F20003C2F21D
:1005C00000031B687A689A4269D84AF27043C2F203
:1005D00000033B614AF27043C2F200031B687B6177
:1005E00004E07B693B617B691B687B617B695A68BE
:1005F0007B689A4203D27B691B68002BF1D14AF2D7
:100600007843C2F200031B687A699A4247D03B697B
:100610001A6849F28863C0F240031B88D318FB6054
:100620007B691A683B691A607B695A687B68D21AD1
:1006300049F28863C0F240031B884FEA43039A42A1
:1006400012D97A697B68D318BB607B695A687B686A
:10065000D21ABB685A607B697A685A60B86840F6FB
:100660009503C0F24003984740F20003C2F2000332
:100670001A687B695B68D21A40F20003C2F2000379
:100680001A607B695A684AF27C43C2F200031B6815
:100690001A437B695A607B694FF000021A6044F686
:1006A0001D13C0F240039847FB68002B04D149F2A8
:1006B0004113C0F240039847FB68184607F118073A
:1006C000BD4680BD80B584B000AF78607B68FB60BC
:1006D0007B68002B5CD049F28863C0F240031B8822
:1006E000C3F10003FA68D318FB60FB68BB60BB680A
:1006F0005A684AF27C43C2F200031B681340002B85
:1007000005D142F6E563C0F240039847FEE7BB68B7
:100710001B68002B05D042F6E563C0F24003984702
:10072000FEE7BB685A684AF27C43C2F200031B68CA
:100730001340002B2CD0BB681B68002B28D1BB6852
:100740005A684AF27C43C2F200031B686FEA030353
:100750001A40BB685A6044F6F903C0F24003984758
:10076000BB685A6840F20003C2F200031B68D2184B
:1007700040F20003C2F200031A60B86840F6950325
:10078000C0F24003984744F61D13C0F24003984757
:1007900007F11007BD4680BD80B584B000AF3C4B6B
:1007A00023F00703FB604AF27043C2F20003FA68C9
:1007B0001A604AF27043C2F200034FF000025A601E
:1007C00049F28C63C0F240031B68FA68D318BB601F
:1007D00049F28863C0F240031B88C3F10003BA6882
:1007E000D318BB604AF27843C2F20003BA681A60B9
:1007F0004AF27843C2F200031B6803F00703002BA0
:1008000005D042F6E563C0F240039847FEE74AF29E
:100810007843C2F200031B684FF000025A604AF2AC
:100820007843C2F200031B684FF000021A60FB68B5
:100830007B6049F28C63C0F240031A6849F2886316
:10084000C0F240031B88D21A7B685A604AF2784390
:10085000C2F200031A687B681A6040F20003C2F219
:1008600000031A6849F28863C0F240031B88D21A59
:1008700040F20003C2F200031A604AF27C43C2F263
:1008800000034FF000421A6007F11007BD4680BD1B
:100890007804002080B485B000AF78604AF27043DD
:1008A000C2F20003FB6002E0FB681B68FB60FB68B0
:1008B0001A687B689A42F7D3FB68BB60FB685B6889
:1008C000BA68D2187B689A4208D1FB685A687B687C
:1008D0005B68D218FB685A60FB687B607B68BB6012
:1008E0007B685B68BA68D218FB681B689A421ED1A5
:1008F000FB681A684AF27843C2F200031B689A4206
:100900000DD07B685A68FB681B685B68D2187B68EF
:100910005A60FB681B681A687B681A600BE04AF231
:100920007843C2F200031A687B681A6003E0FB6830
:100930001A687B681A60FA687B689A4202D0FB6882
:100940007A681A6007F11407BD4680BC704700BF83
:1009500090B585B004AF4FF0010300934AF298734D
:10096000C2F2000301934FF0000302934FF0000323
:10097000039340F6E520C0F2400049F29061C0F2D6
:1009800040014FF082024FF0000344F21504C0F220
:100990004004A0474AF29873C2F200031C684FF06B
:1009A000010300934AF29C73C2F2000301934FF0DB
:1009B000000302934FF00003039340F6A540C0F2FA
:1009C000400049F29861C0F240014FF08202234694
:1009D00044F21504C0F24004A0474AF29873C2F2F0
:1009E00000031B68184644F2C953C0F240039847FD
:1009F00007F10407BD4690BD80B483B000AF4FF04F
:100A000001037B604AF2BC43C2F200031A684AF257
:100A10009C43C2F200031B689A4202D14FF00003CC
:100A20007B604AF29C43C2F200031A684AF2BC435C
:100A3000C2F200031A604FF000033B6024E04AF268
:100A4000C043C2F200033A6853F822204AF28C43B2
:100A5000C2F20003396853F821309A4202D14FF0B4
:100A600000037B604AF28C43C2F200033A6853F8F9
:100A700022104AF2C043C2F200033A6843F822103F
:100A80003B6803F101033B603B68022BD7DD40F27A
:100A90000403C2F200031B68012B02D04FF00003D5
:100AA0007B6040F20803C2F200031A684AF2CC43AA
:100AB000C2F200031B689A4203D14FF000037B602F
:100AC00009E040F20803C2F200031A684AF2CC437C
:100AD000C2F200031A607B68184607F10C07BD4696
:100AE00080BC704790B587B000AF78604FF00003CE
:100AF000FB6007F10C03184641F24533C0F2400396
:100B0000984741F2F923C0F24003984702464AF65B
:100B1000AB23CAF6AA23A3FB02134FEA53010B46E9
:100B20004FEA43035B18D31A7B614AF28043C2F257
:100B300000037A6953F822303B614AF28C43C2F2D7
:100B400000037A6953F8223003F101014AF28C4321
:100B5000C2F200037A6943F8221007F10C033869E6
:100B600019464FF0FF324FF0000343F2F134C0F268
:100B70004004A0470346012B06D040F20403C2F212
:100B800000034FF000021A60FB6803F10103FB60F1
:100B9000FA684FF6FF739A4202D14FF00003FB60F0
:100BA00040F6AD33C0F240039847AAE780B500AFE6
:100BB0004AF2B443C2F200031B6803F101024AF295
:100BC000B443C2F200031A604AF2B443C2F2000313
:100BD0001B68112B64D94AF2B443C2F200034FF0F0
:100BE00000021A604AF2B843C2F200031B78012BDC
:100BF00018D0022B38D0002B52D14AF29C73C2F28B
:100C000000031B6818464FF0000144F21D43C0F278
:100C1000400398474AF2B843C2F200034FF0010282
:100C20001A703DE04AF29C73C2F200031B6818463A
:100C30004FF0010144F21D43C0F2400398474AF2CD
:100C40009873C2F200031B6818464FF0000144F28B
:100C50001D43C0F2400398474AF2B843C2F2000372
:100C60004FF002021A701BE04AF29873C2F20003BE
:100C70001B6818464FF0010144F21D43C0F24003C7
:100C800098474AF2B843C2F200034FF000021A70CC
:100C90004FF0C80044F22D33C0F24003984700BF24
:100CA00080BD00BF90B585B000AF786041F295037C
:100CB000C0F24003984700E000BF4AF29843C2F2F6
:100CC00000031B6818464FF0FF3143F61D73C0F256
:100CD00040039847F860FB68002B05D142F6E563B6
:100CE000C0F240039847FEE7FB68002B07D140F2B3
:100CF0000403C2F200034FF000021A6027E007F17C
:100D00000803F86819464FF000024FF0000343F261
:100D10006974C0F24004A0470346012B06D040F29C
:100D20000403C2F200034FF000021A6042F6796336
:100D3000C0F240039847BB68184640F6D553C0F24E
:100D40004003984742F6A963C0F24003984740F237
:100D50000403C2F200031B68012BADD14AF29C438D
:100D6000C2F200031B6803F101024AF29C43C2F283
:100D700000031A60A0E700BF80B500AF4AF2A043AD
:100D8000C2F200031B68012B23D14AF2B043C2F226
:100D900000031B6803F101024AF2B043C2F20003F0
:100DA0001A604AF2B043C2F200031B68642B10D9E8
:100DB0004AF2B043C2F200034FF000021A6040F65C
:100DC0008973C0F24003984740F6ED73C0F24003C8
:100DD000984780BD80B582B000AF78607A684FF6E2
:100DE000FE739A4248D97B68A3F57F43A3F1FF03C2
:100DF000052B19D97B6813F1080F15D840F20C03A5
:100E0000C2F200031B687868194640F61573C0F2F9
:100E1000400398470346012B06D040F20403C2F278
:100E200000034FF000021A6040F20403C2F2000314
:100E30001B68002B05D142F6E563C0F240039847DA
:100E4000FEE740F20C03C2F200031B6803F101024B
:100E500040F20C03C2F200031A6040F20C03C2F22B
:100E600000031B68002B50D140F20C03C2F20003B8
:100E70004FF6FF721A6048E07B68052B1CD97B682F
:100E8000C3F57F4303F1FE03062B15D94AF2AC43A9
:100E9000C2F200031B687868194640F61573C0F269
:100EA000400398470346012B06D040F20403C2F2E8
:100EB00000034FF000021A6040F20403C2F2000384
:100EC0001B68002B05D142F6E563C0F2400398474A
:100ED000FEE74AF2AC43C2F200031B6803F10102D1
:100EE0004AF2AC43C2F200031A604AF2AC43C2F2C7
:100EF00000031A684FF6FE739A4206D94AF2AC43D1
:100F0000C2F200034FF000021A6007F10807BD4665
:100F100080BD00BF80B584B000AF786039604FF00D
:100F20000103FB607A683B689A4213D97A683B6890
:100F3000D31A032B05D942F6E563C0F24003984764
:100F4000FEE77A683B68D31A032B16D94FF00003EB
:100F5000FB6012E03A687B68D31A032B05D942F68E
:100F6000E563C0F240039847FEE73A687B68D31A0E
:100F7000032B02D94FF00003FB60FB68184607F112
:100F80001007BD4680BD00BF80B582B000AF4AF2F9
:100F90009843C2F200031B68184643F65173C0F22F
:100FA0004003984778607B68002B1AD03B467868EE
:100FB00019464FF0000243F6CD13C0F240039847A4
:100FC0000346012B06D040F20403C2F200034FF0A7
:100FD00000021A603B68184640F6D553C0F2400341
:100FE000984707F10807BD4680BD00BF98B500AF20
:100FF0004AF2A843C2F200031A684AF28043C2F2DE
:10100000000353F82230184640F20801C2F20001F2
:101010004FF000024FF0000343F22564C0F2400499
:10102000A0470346012B33D140F20803C2F200036C
:101030001B6803F1010240F20803C2F200031A60C8
:1010400040F20803C2F200031B68002B06D140F2F5
:101050000803C2F200034FF6FF721A604AF2A84377
:10106000C2F200031B6803F101024AF2A843C2F274
:1010700000031A604AF2A843C2F200031B68022B65
:1010800006DD4AF2A843C2F200034FF000021A60E4
:1010900098BD00BF90B583B000AF4FF000033B6038
:1010A0004FF0090043F63963C0F240039847024607
:1010B0004AF29843C2F200031A604FF000037B60CB
:1010C00060E04FF003004FF004014FF0000243F2E4
:1010D0001113C0F24003984701464AF28043C2F21E
:1010E00000037A6843F822104AF28043C2F20003F8
:1010F0007A6853F82230002B05D142F6E563C0F23E
:1011000040039847FEE74AF28043C2F200037A6840
:1011100053F822204AF29843C2F200031B6810469B
:10112000194643F66563C0F2400398470346012B16
:1011300007D040F20403C2F200034FF000021A602D
:101140001CE04AF28043C2F200037A6853F822207E
:101150004AF29843C2F200031B681046194643F650
:101160006563C0F2400398470346002B06D040F267
:101170000403C2F200034FF000021A607B6803F11F
:1011800001037B607B68022B9BDD4AF28043C2F245
:1011900000031B6818464FF0000143F6BD63C0F220
:1011A000400398470346002B06D040F20403C2F2E6
:1011B00000034FF000021A604AF28043C2F20003BB
:1011C0001A684AF29843C2F200031B681046194697
:1011D00043F6BD63C0F2400398470346012B06D097
:1011E00040F20403C2F200034FF000021A604AF218
:1011F0008043C2F200031A683B46104619464FF07E
:1012000000024FF0000343F2F134C0F24004A04763
:101210004AF28043C2F200031A684AF29843C2F2CB
:1012200000031B681046194643F66563C0F240038D
:1012300098470346002B06D040F20403C2F2000395
:101240004FF000021A604AF28043C2F200031A68AB
:101250003B46104619464FF000024FF0000343F2A0
:101260006974C0F24004A0474AF28043C2F200030E
:101270001A684AF29843C2F200031B6810461946E6
:1012800043F66563C0F2400398470346012B06D03E
:1012900040F20403C2F200034FF000021A604AF267
:1012A0009843C2F200031B6818464FF0C80143F68A
:1012B0001D73C0F2400398470346002B06D040F24E
:1012C0000403C2F200034FF000021A604AF298735E
:1012D000C2F200031B68184644F26D73C0F240036B
:1012E00098474AF2A043C2F200034FF001021A608D
:1012F00007F10C07BD4690BD80B400AF4AF2A4438D
:10130000C2F200031A6844F66D63C4F2C61303FB0D
:1013100002F303F5405202F139024AF2A443C2F249
:1013200000031A604AF2A443C2F200031B684FEAAA
:1013300013434FEA43434FEA53431846BD4680BC2C
:10134000704700BF80B483B000AF78604AF2A44316
:10135000C2F200037A681A6007F10C07BD4680BC30
:10136000704700BF80B483B000AF0346FB714FF4F9
:101370006143CEF2000397F907204FEA5212F97940
:1013800001F01F014FF0010000FA01F143F82210B3
:1013900007F10C07BD4680BC704700BF80B483B026
:1013A00000AF03463960FB7197F90730002B10DA64
:1013B0004FF46D43CEF20003FA7902F00F02A2F16E
:1013C00004013A68D2B24FEA0212D2B25B181A761E
:1013D0000DE04FF46143CEF2000397F907103A682D
:1013E000D2B24FEA0212D2B25B1883F8002307F19F
:1013F0000C07BD4680BC704780B483B000AF7860F6
:101400007B68072B34D801A252F823F02D1440003A
:1014100033144000391440003F1440004914400088
:10142000531440005D144000671440004FF4FA4329
:1014300020E04FF400431DE04FF400431AE04FF466
:101440001063C0F23D0315E04FF49053C0F27A03ED
:1014500010E04FF4D853C0F2B7030BE04FF4D85369
:10146000C0F2B70306E04FF4D853C0F2B70301E06F
:101470004FF00003184607F10C07BD4680BC7047CB
:1014800080B500AF4FF0060041F2F933C0F24003DF
:101490009847024613464FEA83039B184FEA83039B
:1014A000184680BD80B500AF41F28143C0F24003D1
:1014B000984703464FEA5303184680BD80B58AB06B
:1014C00000AF786039607B68BB604FF0C003FB60A1
:1014D0004FF400633B614FF000037B614FF000036A
:1014E000BB614FF00003FB6138684FF001014FF022
:1014F000000243F21113C0F24003984702464AF239
:10150000D043C2F200031A603B6803F1010318469E
:101510004FF001014FF0000243F21113C0F24003FB
:10152000984702464AF2D443C2F200031A604AF2D4
:10153000D043C2F200031B68002B65D04AF2D443AB
:10154000C2F200031B68002B5ED04FF00F0042F286
:101550003563C0F24003984741F2A543C0F240030F
:101560009847034607F108024FF40040C4F2020016
:1015700011461A4640F29123C0F2400398474FF4B7
:101580000040C4F202004FF0FF3140F2CD33C0F210
:10159000400398474FF40040C4F2020040F2413348
:1015A000C0F2400398474FF40040C4F2020040F2FA
:1015B0007933C0F24003984707F120034FF400400D
:1015C000C4F20200194640F2C943C0F240039847F2
:1015D0004FF40040C4F202004FF0010140F2B13379
:1015E000C0F2400398474FF00F004FF00A0141F25C
:1015F0009D33C0F2400398474FF00F0041F265332E
:10160000C0F24003984702E04FF000037B627B6A20
:10161000184607F12807BD4680BD00BF90B585B0CC
:1016200000AFF860B9607A604AF2D043C2F20003BA
:101630001B681846B9687A684FF0000343F2697472
:10164000C0F24004A0470346002B02D04FF0010334
:1016500001E04FF00003184607F11407BD4690BDA6
:1016600090B587B000AFF8600B467A60FB724AF223
:10167000D443C2F200031A6807F10B03104619465F
:101680007A684FF0000343F2F134C0F24004A047FF
:101690000346012B0ED14FF001037B614FF4004054
:1016A000C4F202004FF0020140F2B133C0F2400335
:1016B000984702E04FF000037B617B69184607F111
:1016C0001C07BD4690BD00BF90B587B000AF4FF07E
:1016D0000003FB604FF40040C4F2020040F20143FB
:1016E000C0F24003984778614FF40040C4F2020012
:1016F00040F2E933C0F24003984738617A693B69A8
:1017000013407B617B6903F00203002B2AD04AF26D
:10171000D443C2F20003196807F10B0207F10C036E
:10172000084611461A4643F6CD13C0F240039847C7
:101730000346012B0BD1FB7A4FF40040C4F20200A8
:10174000194640F26D43C0F2400398470AE04FF457
:101750000040C4F202004FF0020140F2CD33C0F26B
:10176000400398477B6903F00103002B21D007F168
:1017700004034FF40040C4F20200194640F2C9438A
:10178000C0F2400398477B68DBB2FB724AF2D04359
:10179000C2F20003196807F10B0207F10C030846B7
:1017A00011461A464FF0000343F22564C0F240048C
:1017B000A047FB68002B06D04EF60453CEF2000380
:1017C0004FF080521A6007F11C07BD4690BD00BF64
:1017D00080B582B000AF78607B68072B4AD801A241
:1017E00052F823F075184000051840001518400005
:1017F0002518400035184000451840005518400095
:10180000651840004FF0000042F2A933C0F24003D7
:1018100098472FE04FF0010042F2A933C0F2400395
:10182000984727E04FF0000042F23543C0F24003F2
:1018300098471FE04FF0100042F23543C0F24003DA
:10184000984717E04FF0200042F23543C0F24003C2
:1018500098470FE04FF0000042F21553C0F24003EA
:10186000984707E04FF0010042F21553C0F24003E1
:10187000984700BF07F10807BD4680BD80B582B01C
:1018800000AF78607B68072B2DD801A252F823F0B7
:10189000B1184000B7184000B7184000CF184000FA
:1018A000CF184000CF184000CF184000CF1840009C
:1018B0004FF0010319E042F2F933C0F240039847B8
:1018C0000346002B0CBF00230123DBB20DE042F2E4
:1018D000B153C0F2400398470346002B0CBF0023CE
:1018E0000123DBB201E04FF00003184607F10807BF
:1018F000BD4680BD80B483B000AF78607B68072BA5
:1019000034D801A252F823F0291940002F194000C1
:10191000351940003B194000451940004F1940005F
:1019200059194000631940004FF4FA4320E04FF486
:1019300000431DE04FF400431AE04FF41063C0F27F
:101940003D0315E04FF49053C0F27A0310E04FF4DA
:10195000D853C0F2B7030BE04FF4D853C0F2B7032B
:1019600006E04FF4D853C0F2B70301E04FF0000394
:10197000184607F10C07BD4680BC704780B582B0A1
:1019800000AF0346FB7100BFFB79184641F67D03AB
:10199000C0F240039847034683F00103DBB2002BFB
:1019A000F2D107F10807BD4680BD00BF80B586B003
:1019B00000AFF8607A603B600B46FB72FB7A18461A
:1019C00041F6F503C0F24003984702467B68B2FB3C
:1019D000F3F37B617B693A6802FB03F37B613B684D
:1019E00003F1FF334FEA03424FF00003C0F2FF73ED
:1019F00013407A68D2B2134343F47C52FB681A60F6
:101A000007F11807BD4680BD80B582B000AF786091
:101A100039603B68002B0ED142F2CD53C0F2400337
:101A200098474FF48063C4F20E037A68126842F05C
:101A300000529A620BE042F20163C0F24003984701
:101A40004FF48063C4F20E037A681268DA6207F119
:101A50000807BD4680BD00BF80B582B000AF78608A
:101A60007B68002B06D142F2E553C0F24003984751
:101A7000034605E042F21963C0F24003984703466B
:101A8000184607F10807BD4680BD00BF80B582B08B
:101A900000AF0346FB71FB79A3F10303042B0ED8BF
:101AA000FB79184641F2D173C0F240039847FB79A5
:101AB000184641F67D13C0F24003984700E000BF8E
:101AC00007F10807BD4680BD80B582B000AF7860E1
:101AD00000BF786841F65923C0F240039847034697
:101AE000002BF6D04FF00003184607F10807BD465B
:101AF00080BD00BF80B500AF4FF0060041F6F50392
:101B0000C0F240039847024613464FEA83039B18EE
:101B10004FEA8303184680BD80B500AF41F6F52338
:101B2000C0F24003984703464FEA5303184680BD6E
:101B300090B583B000AF41F61933C0F24003984727
:101B40000346184642F66D23C0F2400398474FF013
:101B5000060041F68D23C0F24003984707F10403C5
:101B600018464FF006014FF001024FF0140341F602
:101B7000AD14C0F24004A04707F1040318464FF02B
:101B8000000141F60923C0F2400398474FF00000DE
:101B900041F6C923C0F2400398474FF0100042F2CB
:101BA000FD23C0F24003984700BF42F2B973C0F270
:101BB0004003984707F10C07BD4690BD80B500AFC4
:101BC00041F25043C4F20E034FF400425A604FF00A
:101BD00013004FF0605141F6C173C0F240039847C3
:101BE0004FF014004FF0605141F6C173C0F2400352
:101BF00098474FF023004FF07901C2F6000141F6FB
:101C0000C173C0F2400398474FF04C004FF05901A8
:101C1000C2F6000141F6C173C0F2400398474FF08D
:101C200015004FF0006141F6C173C0F240039847C0
:101C30004FF016004FF0006141F6C173C0F240034F
:101C400098474FF017004FF0405141F6C173C0F272
:101C5000400398474FF0170041F61D73C0F2400350
:101C6000984780BD80B485B000AFF860B9607A60F5
:101C70007B68002B03D0FB68BA685A6602E0FB68F9
:101C8000BA681A6607F11407BD4680BC704700BFEA
:101C900080B487B000AFF860B9607A60FB687A689A
:101CA0005A64BB68B3F1C05F4DD0B3F1C05F08D8D0
:101CB000B3F1006F16D0B3F1805F2ED0002B6DD042
:101CC00068E0B3F1205F69D0B3F1205F03D8B3F1CE
:101CD000005F4ED05EE0B3F1405F5FD0B3F1605F74
:101CE0005CD057E0FB681B6F7B61FB681A6F7B68F9
:101CF0006FEA03017B690B401A40FB681A67FB68B7
:101D00005B6F7B61FB685A6F7B686FEA03017B69DD
:101D10000B401A40FB685A673CE0FB681B6F7B6115
:101D20007A687B691A43FB681A67FB685B6F7B61A3
:101D3000FB685A6F7B686FEA03017B690B401A40AE
:101D4000FB685A6726E0FB681B6F7B61FB681A6FB4
:101D50007B686FEA03017B690B401A40FB681A67D6
:101D6000FB685B6F7B617A687B691A43FB685A6723
:101D700010E0FB681B6F7B617A687B691A43FB6824
:101D80001A67FB685B6F7B617A687B691A43FB6843
:101D90005A6700BFFB687A685A6000E000BF07F12D
:101DA0001C07BD4680BC704780B584B000AFF860AA
:101DB000B9607A60F868B96841F69563C0F240038B
:101DC00098477B6803F00103F868B9681A4641F642
:101DD0006543C0F2400398477B6803F00A03002B79
:101DE00003D0FB68BA681A6202E0FB68BA685A62FC
:101DF0007B6803F00203002B04D0FB68BA68C3F8C9
:101E0000802008E07B6803F00803002B03D0FB6808
:101E1000BA68C3F88420FB68BA685A61FB68BA687C
:101E20001A6007F11007BD4680BD00BF80B584B0C1
:101E300000AFF860B9607A603B60F868B96841F655
:101E40009563C0F240039847F868B968BA6941F6EB
:101E50006543C0F2400398473B68002B03D0FB6802
:101E6000BA681A6502E0FB68BA685A657B68002B9D
:101E700003D0FB68BA681A6302E0FB68BA685A6369
:101E8000FB68BA681A61FB68BA681A6007F1100744
:101E9000BD4680BD80B483B000AF786039607B6898
:101EA0003A685A6407F10C07BD4680BC704700BF12
:101EB00080B483B000AF78607B68DB6C184607F1B4
:101EC0000C07BD4680BC704780B483B000AF78601B
:101ED0007B689B6C184607F10C07BD4680BC7047B9
:101EE00080B485B000AF78607B684FEA531303F588
:101EF000001303F207734FEA4323FB607B6803F090
:101F00001F034FF0010202FA03F31A46FB681A633B
:101F100007F11407BD4680BC704700BF80B485B090
:101F200000AF78607B684FEA531303F5001303F2A8
:101F300007734FEA4323FB607B6803F01F034FF0F6
:101F4000010202FA03F31A46FB685A6307F1140709
:101F5000BD4680BC704700BF80B485B000AF7860DC
:101F60007B684FEA531303F5001303F207734FEA3C
:101F70004323FB60FB689A6B7B6803F01F034FF001
:101F8000010101FA03F31340002B0AD07B6803F030
:101F90001F034FF0010202FA03F31A46FB685A636B
:101FA00009E07B6803F01F034FF0010202FA03F31C
:101FB0001A46FB681A6307F11407BD4680BC7047D8
:101FC00090B587B002AF786039607B684FEA5313F1
:101FD00003F5001303F207734FEA4323FB603B68EA
:101FE00003F0F043B3F1005F00F08680B3F1005FCF
:101FF00009D8B3F1805F37D0B3F1C05F58D0B3F1E7
:10200000006F0DD0CFE0B3F1405F00F0A980B3F1D5
:10201000605F00F0A580B3F1205F00F09180C2E026
:102020007B6803F01F034FF0010202FA03F3F86824
:102030004FF000611A4641F69143C0F240039847C1
:102040007B6803F01F034FF0010202FA03F31A4604
:102050003B6803F00103F86811461A4641F66543F0
:10206000C0F240039847A1E07B6803F01F034FF0E4
:10207000010202FA03F3F8684FF080511A4641F664
:102080009143C0F2400398477B6803F01F034FF071
:10209000010202FA03F31A463B6803F00103F868F1
:1020A00011461A4641F66543C0F2400398477DE069
:1020B0007B6803F01F034FF0010202FA03F3F86894
:1020C0004FF0C0511A4641F69143C0F24003984781
:1020D0007B6803F01F034FF0010202FA03F31A4674
:1020E0003B6803F00103F86811461A4641F6654360
:1020F000C0F24003984759E07B6803F01F034FF09C
:10210000010202FA03F3F8684FF000511A4641F653
:102110009143C0F2400398477B6803F01F034FF0E0
:10212000010202FA03F31A463B6803F00103F86860
:1021300011461A4641F66543C0F24003984735E020
:102140007B6803F01F034FF0010202FA03F3F86803
:1021500019463A6841F6A953C0F24003984725E072
:102160007B6803F01F034FF0010202FA03F31946E4
:102170003B6803F060523B6803F00403002B0CBF84
:1021800000230123DBB2386800F0010000280CBFF7
:1021900000200120C0B20090F86841F62D64C0F222
:1021A0004004A04702E04FF0000301E04FF00103BC
:1021B000184607F11407BD4690BD00BF80B584B036
:1021C00000AF78603960786841F6B163C0F24003CF
:1021D0009847F860786841F6C963C0F240039847B1
:1021E0000346FA681340FB60FB68002B57D04FF0A2
:1021F0000003BB6050E04AF2D843C2F20003BA6861
:102200004FEA02129B181A683B689A4240D14AF280
:10221000D843C2F20003BA684FEA02129B1803F1D6
:1022200004031A68FB681340002B31D04AF2D843EC
:10223000C2F20003BA684FEA02129B1803F10C03C2
:102240001A684AF2D843C2F20003B9684FEA011192
:102250005B1819684AF2D843C2F20003B8684FEA23
:1022600000101B1803F104031B6808461946904729
:102270004AF2D843C2F20003BA684FEA02129B182E
:1022800003F104031B686FEA0303FA681340FB6061
:10229000BB6803F10103BB60FB68002BABD107F106
:1022A0001007BD4680BD00BF80B500AF4FF4606031
:1022B000C4F20E004FF00B0142F2BD13C0F2400316
:1022C000984780BD80B500AF4FF48050C4F20E0037
:1022D0004FF00C0142F2BD13C0F24003984780BD9D
:1022E00080B500AF4FF49050C4F20E004FF00D01D6
:1022F00042F2BD13C0F24003984780BD80B485B060
:1023000000AF78604FF48063C4F20E034FF4806234
:10231000C4F20E02126B22F070017A680A431A634B
:102320004FF40063FB6009E0FB68002B02D14FF023
:10233000010333E0FB6803F1FF33FB604FF480637C
:10234000C4F20E039B6E03F00803002BECD04FF495
:102350008063C4F20E034FF48062C4F20E02126B6B
:1023600022F0030242F002021A634FF40063FB60A2
:1023700009E0FB68002B02D14FF001030EE0FB687F
:1023800003F1FF33FB604FF48063C4F20E039B6ED6
:1023900003F00803002BECD04FF00003184607F1C0
:1023A0001407BD4680BC704780B483B000AF78602E
:1023B0007B68012B0DD141F21043C4F20E0341F2B0
:1023C0001042C4F20E02926842F0254242F480129A
:1023D0009A6041F21043C4F20E0341F21042C4F27B
:1023E0000E02126842F0254242F008021A6007F11C
:1023F0000C07BD4680BC704780B400AF41F210436B
:10240000C4F20E035B6903F08003002B0BD04FF482
:102410008063C4F20E039B6E03F08003002B02D096
:102420004FF0010301E04FF000031846BD4680BCA9
:10243000704700BF80B485B000AF78604FF00003F4
:10244000FB604FF48063C4F20E031B6A03F00103C8
:10245000002B14D04FF48063C4F20E034FF480625B
:10246000C4F20E02126A22F45C1222F07802796839
:102470000A4342F45C1242F008021A6218E04FF07C
:102480000103FB604FF48062C4F20E024FF48063DC
:10249000C4F20E03196A4CF28603CFF6C8730B40E0
:1024A0007968194343F60973C0F237030B4313628B
:1024B00000BF4FF48063C4F20E039B6E03F400333D
:1024C000002BF6D04FF48063C4F20E034FF4806209
:1024D000C4F20E02126A22F09B7222F4803242F49D
:1024E0005C121A62FB68002B0FD04FF48063C4F2B9
:1024F0000E034FF48062C4F20E02126A22F45C12E0
:1025000022F0010242F45C121A6207F11407BD4680
:1025100080BC704780B483B000AF78607B68002BCC
:1025200014D04FF48061C4F20E014FF48063C4F202
:102530000E031B6A4FF6FC72CFF6C8621A404FF0CA
:102540000203C0F2371313430B622BE04FF4806198
:10255000C4F20E014FF48063C4F20E031B6A4CF206
:10256000FC02CFF6C8721A4043F60173C0F237037B
:1025700013430B6200BF4FF48063C4F20E039B6EE3
:1025800003F00103002BF6D04FF48063C4F20E0376
:102590004FF48062C4F20E02126A42F09B7242F45F
:1025A00080321A6207F10C07BD4680BC704700BF3D
:1025B00080B400AF4FF48063C4F20E039B6E03F44B
:1025C00080331846BD4680BC704700BF80B400AF62
:1025D0004FF48063C4F20E034FF000529A62BD467E
:1025E00080BC704780B400AF4FF48063C4F20E0328
:1025F0009B6E03F002031846BD4680BC704700BFC7
:1026000080B400AF4FF48063C4F20E034FF00002B9
:10261000DA62BD4680BC704780B400AF4FF480637F
:10262000C4F20E039B6E03F004031846BD4680BC43
:10263000704700BF80B483B000AF78607B68222B06
:1026400002D94FF0010343E07B681F2B1CD84FF4E5
:102650008063C4F20E039A697B684FF0010101FAAE
:1026600003F31A407B684FF0010101FA03F39A4229
:102670002CD04FF48063C4F20E037A684FF001014E
:1026800001FA02F21A6121E07B68A3F120037B606A
:102690004FF48063C4F20E03D3F808217B684FF037
:1026A000010101FA03F31A407B684FF0010101FABE
:1026B00003F39A420AD04FF48063C4F20E037A689F
:1026C0004FF0010101FA02F2C3F800214FF00003BC
:1026D000184607F10C07BD4680BC704780B400AFB8
:1026E000FEE700BF80B582B000AF49F62803C0F214
:1026F00040037B6040F20003C2F200033B607A6853
:102700003B689A4213D00BE07B681A683B681A60FA
:102710003B6803F104033B607B6803F104037B60C7
:102720003A6840F25043C2F200039A42ECD340F2BE
:102730005043C2F200033B6007E03B684FF00002E9
:102740001A603B6803F104033B603A684AF2A873DD
:10275000C2F200039A42F0D340F20003C0F24003F9
:102760007B604FF46D43CEF200037A6822F07F0263
:102770009A607A686FF060439A4212D97A684FF68D
:10278000FF73C2F201039A420BD84FF46D43CEF2AD
:1027900000034FF46D42CEF20002926842F0005204
:1027A0009A6049F2DD53C0F24003984749F2ED03C5
:1027B000C0F240039847FEE780B400AF4FF4806357
:1027C000C4F20E031B6B03F00303032B00F2198109
:1027D00001A151F823F000BFE92740001B28400069
:1027E000AD284000AD28400041F21043C4F20E0372
:1027F0005B6903F08003002B07D040F21003C2F2A4
:1028000000034FF400421A60FCE040F21003C2F2F1
:1028100000034FF4FA421A60F4E04FF48063C4F20C
:102820000E031B6A03F08073002B09D040F21003E3
:10283000C2F200034FF4D852C0F2B7021A60E1E0CE
:1028400040F21003C2F200034FF41062C0F23D02E6
:102850001A604FF48063C4F20E031B6A03F0700326
:10286000102B04D0202B0FD0002B1DD01BE040F2EA
:102870001003C2F200031B684FEA430240F2100348
:10288000C2F200031A6010E040F21003C2F200032B
:102890001A6813464FEA43039A1840F21003C2F233
:1028A00000031A6001E000E000BFABE04FF480637A
:1028B000C4F20E031B6A03F08073002B09D040F2B0
:1028C0001003C2F200034FF4D852C0F2B7021A60EC
:1028D00034E040F21003C2F200034FF41062C0F281
:1028E0003D021A604FF48063C4F20E031B6A03F0CA
:1028F0007003102B04D0202B0FD0002B1DD01BE019
:1029000040F21003C2F200031B684FEA430240F298
:102910001003C2F200031A6010E040F21003C2F28A
:1029200000031A6813464FEA43039A1840F2100353
:10293000C2F200031A6001E000E000BF4FF48063C0
:10294000C4F20E031B6B03F00303022B2CD14FF4D4
:102950008063C4F20E039A6A4FF00003C0F2FF7363
:1029600013404FEA134303F1010240F21003C2F295
:1029700000031B6803FB02F240F21003C2F20003E3
:102980001A6040F21003C2F200031A684FF4806329
:10299000C4F20E039B6ADBB2B2FBF3F240F2100307
:1029A000C2F200031A602DE04FF48063C4F20E03FC
:1029B000DA6A4FF00003C0F2FF7313404FEA13438B
:1029C00003F1010240F21003C2F200031B6803FB93
:1029D00002F240F21003C2F200031A6040F2100348
:1029E000C2F200031A684FF48063C4F20E03DB6A7C
:1029F000DBB2B2FBF3F240F21003C2F200031A6042
:102A000000E000BF4FF48063C4F20E031B6B03F0C1
:102A10007003702B12D140F21003C2F200031A6847
:102A20004AF6AB23CAF6AA23A3FB02134FEA5302CA
:102A300040F21003C2F200031A6014E040F21003E7
:102A4000C2F200031A684FF48063C4F20E031B6BDA
:102A500003F070034FEA131322FA03F240F210035B
:102A6000C2F200031A60BD4680BC704780B483B0D8
:102A700000AF78607A6842F6FF43C0F231139A42A1
:102A800007D84FF42063C4F20E034FF000021A601F
:102A900033E07A6845F6FF13C0F262239A4207D802
:102AA0004FF42063C4F20E034FF480721A6024E0E6
:102AB0007A6848F2FF63C0F293339A4207D84FF422
:102AC0002063C4F20E034FF400721A6015E07A68B6
:102AD0004BF2FF33C0F2C4439A4207D84FF420634D
:102AE000C4F20E034FF440721A6006E04FF4206304
:102AF000C4F20E034FF480621A6007F10C07BD4662
:102B000080BC704780B483B000AF78607B6803F10D
:102B100008027B685A607B684FF0FF329A607B68DE
:102B200003F108027B68DA607B6803F108027B68C6
:102B30001A617B684FF000021A6007F10C07BD466E
:102B400080BC704780B483B000AF78607B684FF082
:102B500000021A6107F10C07BD4680BC704700BF38
:102B600080B485B000AF786039607B685B68FB60DB
:102B70003B68FA685A60FB689A683B689A60FB6831
:102B80009B683A685A60FB683A689A603B687A6862
:102B90001A617B681B6803F101027B681A6007F108
:102BA0001407BD4680BC704780B485B000AF786024
:102BB00039603B681B68BB60BB68B3F1FF3F03D162
:102BC0007B681B69FB600DE07B6803F10803FB6019
:102BD00002E0FB685B68FB60FB685B681A68BB68C7
:102BE0009A42F6D9FB685A683B685A603B685B6852
:102BF0003A689A603B68FA689A60FB683A685A607B
:102C00003B687A681A617B681B6803F101027B6884
:102C10001A6007F11407BD4680BC704780B485B0C8
:102C200000AF78607B685B687A6892689A607B68BE
:102C30009B687A6852685A607B681B69FB60FB6816
:102C40005A687B689A4203D17B689A68FB685A602D
:102C50007B684FF000021A61FB681B6803F1FF32CA
:102C6000FB681A60FB681B68184607F11407BD462D
:102C700080BC704780B485B000AFF860B9607A60FE
:102C8000FB68A3F10403FB60FB684FF080721A60DD
:102C9000FB68A3F10403FB60BA68FB681A60FB6879
:102CA000A3F10403FB6042F6D943C0F24003FA6883
:102CB0001360FB68A3F11403FB607A68FB681A6079
:102CC000FB68A3F12003FB60FB68184607F11407BB
:102CD000BD4680BC704700BF80B500AF40F2140312
:102CE000C2F200031B68B3F1FF3F05D042F6E56373
:102CF000C0F240039847FEE742F6E563C0F24003A6
:102D00009847FEE7064B19680868B0E8F00F80F3B3
:102D100009884FF0000080F311884EF00D0E7047C7
:102D200050A5002003480068006880F3088862B658
:102D300000DF00BF08ED00E080B584B000AF4FF4C5
:102D40006443CEF20003FB60FB681B78DBB2BB6020
:102D5000FB684FF0FF021A70FB681B78DBB2FB7157
:102D6000FB79DBB223F05F03DAB24AF24853C2F2D6
:102D700000031A704AF24C53C2F200034FF00702EC
:102D80001A6011E04AF24C53C2F200031B6803F1CF
:102D9000FF324AF24C53C2F200031A60FB79DBB2F5
:102DA0004FEA4303DBB2FB71FB79DBB2DBB25BB210
:102DB000002BE7DB4AF24C53C2F200031B684FEAD8
:102DC00003224AF24C53C2F200031A604AF24C53F7
:102DD000C2F200031B6803F4E0624AF24C53C2F2F1
:102DE00000031A60BB68DAB2FB681A704EF6205313
:102DF000CEF200034EF62052CEF20002126842F4E8
:102E000070021A604EF62053CEF200034EF62052A6
:102E1000CEF20002126842F070421A6042F67973F4
:102E2000C0F24003984740F21403C2F200034FF08F
:102E300000021A6042F62553C0F24003984742F65A
:102E4000D943C0F2400398474FF00003184607F1FA
:102E50001007BD4680BD00BF80B400AF4EF60453DE
:102E6000CEF200034FF080521A60BFF34F8FBFF3D2
:102E70006F8FBD4680BC704780B500AF42F6E563FA
:102E8000C0F24003984740F21403C2F200031B68EB
:102E900003F1010240F21403C2F200031A60BFF30F
:102EA0004F8FBFF36F8F80BD80B500AF40F214032A
:102EB000C2F200031B6803F1FF3240F21403C2F2B6
:102EC00000031A6040F21403C2F200031B68002BD7
:102ED00006D14FF0000042F6F963C0F24003984774
:102EE00080BD00BFEFF311804FF0A00181F3118886
:102EF00070474FF00003184680F31188704700BFF9
:102F0000EFF309800C4B1A6820E9F00F10602DE9EF
:102F100008404FF0A00080F3118801F039FF4FF016
:102F2000000080F31188BDE8084019680868B0E81F
:102F3000F00F80F30988704750A5002080B500AFDE
:102F400042F6E563C0F24003984744F60D33C0F201
:102F5000400398470346002B06D04EF60453CEF2AA
:102F600000034FF080521A604FF0000042F6F96300
:102F7000C0F24003984780BD80B400AF4EF2140306
:102F8000CEF2000340F21002C2F20002116844F6D1
:102F9000D352C1F26202A2FB01024FEA921202F185
:102FA000FF321A604EF21003CEF200034FF0070218
:102FB0001A60BD4680BC704790B583B000AFEFF398
:102FC00005847C607B680F2B16D949F2A063C0F2A0
:102FD00040031A687B68D3181B78FB704AF2485389
:102FE000C2F200031B78FA789A4205D242F6E563F2
:102FF000C0F240039847FEE74EF60C53CEF20003B2
:103000001B6803F4E0624AF24C53C2F200031B68EF
:103010009A4205D942F6E563C0F240039847FEE7BD
:1030200007F10C07BD4690BD80B584B000AF786055
:1030300039607B68FB60FB68002B05D142F6E563D5
:10304000C0F240039847FEE742F67963C0F24003BE
:103050009847FB681A68FB68DB6BF968096C01FB31
:1030600003F3D218FB685A60FB684FF000029A63C2
:10307000FB681A68FB689A60FB681A68FB68DB6B80
:1030800003F1FF33F968096C01FB03F3D218FB6805
:10309000DA60FB684FF0FF325A64FB684FF0FF3292
:1030A0009A643B68002B15D1FB681B69002B23D069
:1030B000FB6803F11003184645F27503C0F24003A4
:1030C00098470346012B17D142F65963C0F24003DB
:1030D000984711E0FB6803F11003184642F60533E8
:1030E000C0F240039847FB6803F12403184642F6F8
:1030F0000533C0F24003984742F6A963C0F240038B
:1031000098474FF00103184607F11007BD4680BDF0
:1031100080B588B000AFF860B9601346FB714FF01E
:103120000003FB61FB68002B39D04FF0500040F2E8
:103130004553C0F240039847B861BB69002B2ED0BD
:10314000FB68BA6802FB03F303F101037B61786952
:1031500040F24553C0F2400398470246BB691A60EB
:10316000BB691B68002B14D0BB69FA68DA63BB69C2
:10317000BA681A64B8694FF0010143F22903C0F23A
:1031800040039847BB694FF00002DA64BB69FB61FA
:1031900005E0B86940F2C563C0F240039847FB6997
:1031A000002B05D142F6E563C0F240039847FEE7E5
:1031B000FB69184607F12007BD4680BD90B585B074
:1031C00000AF0346FB714FF0500040F24553C0F290
:1031D00040039847F860FB68002B45D0FB684FF030
:1031E00000025A60FB684FF000021A60FB684FF063
:1031F00000029A60FB684FF00002DA60FB684FF053
:1032000000029A63FB684FF00102DA63FB684FF03B
:1032100000021A64FB684FF0FF325A64FB684FF0FB
:10322000FF329A64FB684FF00002DA64FB6803F136
:103230001003184642F60533C0F240039847FB6876
:1032400003F12403184642F60533C0F240039847C1
:10325000F8684FF000014FF000024FF0000343F216
:10326000F134C0F24004A047FB68002B05D142F6C0
:10327000E563C0F240039847FEE7FB68184607F194
:103280001407BD4690BD00BF90B585B000AF786013
:103290007B68BB60BB68002B05D142F6E563C0F2DA
:1032A00040039847FEE7BB685C6845F24563C0F29F
:1032B0004003984703469C4219D1BB68DB6803F181
:1032C000FF32BB68DA60BB68DB68002B0BD1B868E3
:1032D0004FF000014FF000024FF0000343F2F134D1
:1032E000C0F24004A0474FF00103FB6002E04FF042
:1032F0000003FB60FB68184607F11407BD4690BD4C
:1033000090B585B000AF786039607B68BB60BB6802
:10331000002B05D142F6E563C0F240039847FEE773
:10332000BB685C6845F24563C0F2400398470346BA
:103330009C4209D1BB68DB6803F10102BB68DA601B
:103340004FF00103FB6014E0B8684FF000013A68E9
:103350004FF0000343F26974C0F24004A047F860E4
:10336000FB68012B05D1BB68DB6803F10102BB6878
:10337000DA60FB68184607F11407BD4690BD00BF30
:1033800080B584B000AF786039607B68002B05D1D0
:1033900042F6E563C0F240039847FEE73A687B686F
:1033A0009A4205D942F6E563C0F240039847FEE72A
:1033B00078684FF000014FF0020243F21113C0F29F
:1033C00040039847F860FB68002B02D0FB683A681E
:1033D0009A63FB68002B05D142F6E563C0F2400317
:1033E0009847FEE7FB68184607F11007BD4680BD09
:1033F00080B588B000AFF860B9607A603B604FF08C
:103400000003FB61FB68BB61BB69002B05D142F681
:10341000E563C0F240039847FEE7BB68002B03D189
:10342000BB691B6C002B02D14FF0010301E04FF090
:103430000003002B05D142F6E563C0F24003984734
:10344000FEE73B68022B03D1BB69DB6B012B02D18A
:103450004FF0010301E04FF00003002B06D142F6CC
:10346000E563C0F240039847FEE700BF42F6796388
:10347000C0F240039847BB699A6BBB69DB6B9A4209
:1034800002D33B68022B38D1B869B9683A6843F671
:10349000FD23C0F240039847BB69DB6C002B0FD0C3
:1034A000B869396843F68173C0F240039847034610
:1034B000012B1AD142F65963C0F24003984714E039
:1034C000BB695B6A002B10D0BB6903F1240318466B
:1034D00045F27503C0F2400398470346012B04D11F
:1034E00042F65963C0F24003984742F6A963C0F21E
:1034F000400398474FF001038EE07B68002B07D113
:1035000042F6A963C0F2400398474FF0000383E0FE
:10351000FB69002B0AD107F11003184645F271131D
:10352000C0F2400398474FF00103FB6142F6A963E4
:10353000C0F24003984744F6F903C0F240039847AD
:1035400042F67963C0F240039847BB695B6CB3F104
:10355000FF3F03D1BB694FF000025A64BB699B6C0B
:10356000B3F1FF3F03D1BB694FF000029A6442F60A
:10357000A963C0F24003984707F1100207F1040362
:103580001046194645F2B113C0F24003984703466E
:10359000002B34D1B86943F67D53C0F240039847FD
:1035A0000346002B1FD0BB6903F110027B68104655
:1035B000194644F6F163C0F240039847B86943F6F0
:1035C0004143C0F24003984744F61D13C0F2400344
:1035D00098470346002B7FF448AF42F65963C0F288
:1035E0004003984741E7B86943F64143C0F24003BE
:1035F000984744F61D13C0F24003984735E7B86971
:1036000043F64143C0F24003984744F61D13C0F20D
:10361000400398474FF00003184607F12007BD46C6
:1036200080BD00BF80B588B000AFF860B9607A6037
:103630003B60FB68BB61BB69002B05D142F6E563CB
:10364000C0F240039847FEE7BB68002B03D1BB697B
:103650001B6C002B02D14FF0010301E04FF000037F
:10366000002B05D142F6E563C0F240039847FEE720
:103670003B68022B03D1BB69DB6B012B02D14FF0FE
:10368000010301E04FF00003002B05D142F6E56392
:10369000C0F240039847FEE742F6B973C0F2400318
:1036A000984742F6E563C0F2400398477861BB69EA
:1036B0009A6BBB69DB6B9A4202D33B68022B44D105
:1036C000B869B9683A6843F6FD23C0F240039847E9
:1036D000BB699B6CB3F1FF3F2DD1BB69DB6C002B49
:1036E00011D0B869396843F68173C0F24003984736
:1036F0000346012B25D17B68002B22D07B684FF03D
:1037000001021A601DE0BB695B6A002B19D0BB691E
:1037100003F12403184645F27503C0F240039847AD
:103720000346002B0DD07B68002B0AD07B684FF03E
:1037300001021A6005E0BB699B6C03F10102BB69E1
:103740009A644FF00103FB6102E04FF00003FB615C
:10375000786942F6F963C0F240039847FB6918465E
:1037600007F12007BD4680BD80B58AB000AFF86084
:10377000B9607A603B604FF000037B62FB683B629C
:103780003B6A002B05D142F6E563C0F2400398473F
:10379000FEE7BB68002B03D13B6A1B6C002B02D1F8
:1037A0004FF0010301E04FF00003002B06D142F679
:1037B000E563C0F240039847FEE700BF42F6796335
:1037C000C0F2400398473B6A9B6B002B54D03B6A86
:1037D000DB68FB61386AB96843F6ED33C0F2400339
:1037E00098473B68002B27D13B6A9B6B03F1FF3264
:1037F0003B6A9A633B6A1B68002B07D145F245631D
:10380000C0F24003984702463B6A5A603B6A1B6914
:10381000002B29D03B6A03F11003184645F27503CB
:10382000C0F2400398470346012B1DD142F659636D
:10383000C0F24003984717E03B6AFA69DA603B6AD6
:103840005B6A002B10D03B6A03F12403184645F253
:103850007503C0F2400398470346002B04D042F69C
:103860005963C0F24003984742F6A963C0F240038F
:1038700098474FF00103A4E07B68002B07D142F684
:10388000A963C0F2400398474FF0000399E07B6AB8
:10389000002B0AD107F11403184645F27113C0F248
:1038A000400398474FF001037B6242F6A963C0F2E0
:1038B0004003984744F6F903C0F24003984742F6A4
:1038C0007963C0F2400398473B6A5B6CB3F1FF3FFA
:1038D00003D13B6A4FF000025A643B6A9B6CB3F120
:1038E000FF3F03D13B6A4FF000029A6442F6A9639E
:1038F000C0F24003984707F1140207F10403104691
:10390000194645F2B113C0F2400398470346002B15
:103910004AD1386A43F63D53C0F240039847034604
:10392000002B35D03B6A1B68002B11D142F679631E
:10393000C0F2400398473B6A5B68184645F2AD63A6
:10394000C0F24003984742F6A963C0F2400398478B
:103950003B6A03F124027B681046194644F6F16382
:10396000C0F240039847386A43F64143C0F240032F
:10397000984744F61D13C0F2400398470346002BB6
:103980007FF41BAF42F65963C0F24003984714E737
:10399000386A43F64143C0F24003984744F61D138A
:1039A000C0F24003984708E7386A43F64143C0F243
:1039B0004003984744F61D13C0F2400398474FF068
:1039C0000003184607F12807BD4680BD80B588B0C2
:1039D00000AFF860B9607A60FB68BB61BB69002B1F
:1039E00005D142F6E563C0F240039847FEE7BB68A5
:1039F000002B03D1BB691B6C002B02D14FF00103DC
:103A000001E04FF00003002B05D142F6E563C0F260
:103A100040039847FEE742F6B973C0F24003984767
:103A200042F6E563C0F2400398477861BB699B6B3F
:103A3000002B33D0B869B96843F6ED33C0F24003C8
:103A40009847BB699B6B03F1FF32BB699A63BB6903
:103A50005B6CB3F1FF3F17D1BB691B69002B19D019
:103A6000BB6903F11003184645F27503C0F2400329
:103A700098470346002B0DD07B68002B0AD07B684B
:103A80004FF001021A6005E0BB695B6C03F10102B3
:103A9000BB695A644FF00103FB6102E04FF0000381
:103AA000FB61786942F6F963C0F240039847FB690D
:103AB000184607F12007BD4680BD00BF80B584B021
:103AC00000AF78607B68002B05D142F6E563C0F259
:103AD00040039847FEE742F67963C0F240039847F7
:103AE0007B689B6BFB6042F6A963C0F2400398477A
:103AF000FB68184607F11007BD4680BD80B584B04D
:103B000000AFF860B9607A60FB681B6C002B10D1C5
:103B1000FB681B68002B5ED1FB685B68184645F2AA
:103B2000F573C0F240039847FB684FF000025A60FB
:103B300051E07B68002B1DD1FB689A68FB681B6C09
:103B40001046B9681A4649F24763C0F240039847E5
:103B5000FB689A68FB681B6CD218FB689A60FB686C
:103B60009A68FB685B689A4235D3FB681A68FB6801
:103B70009A6030E0FB68DA68FB681B6C1046B96835
:103B80001A4649F24763C0F240039847FB68DA6877
:103B9000FB681B6CC3F10003D218FB68DA60FB689A
:103BA000DA68FB681B689A4208D2FB685A68FB68AF
:103BB0001B6CC3F10003D218FB68DA607B68022B30
:103BC00009D1FB689B6B002B05D0FB689B6B03F155
:103BD000FF32FB689A63FB689B6B03F10102FB6891
:103BE0009A6307F11007BD4680BD00BF80B582B063
:103BF00000AF786039607B681B68002B1CD07B6845
:103C0000DA687B681B6CD2187B68DA607B68DA68DC
:103C10007B685B689A4203D37B681A687B68DA60CA
:103C20007B68DA687B681B6C386811461A4649F273
:103C30004763C0F24003984707F10807BD4680BDBF
:103C400080B582B000AF786042F67963C0F240037D
:103C500098472FE07B68DB6C002B10D078684FF022
:103C6000000143F68173C0F2400398470346012BDD
:103C70001AD145F27D23C0F24003984714E07B68D7
:103C80005B6A002B1BD07B6803F12403184645F2C6
:103C90007503C0F2400398470346002B04D045F259
:103CA0007D23C0F2400398477B689B6C03F1FF3291
:103CB0007B689A647B689B6C002BCBDC00E000BFC8
:103CC0007B684FF0FF329A6442F6A963C0F240036A
:103CD000984742F67963C0F2400398471AE07B6840
:103CE0001B69002B1BD07B6803F11003184645F2BB
:103CF0007503C0F2400398470346002B04D045F2F9
:103D00007D23C0F2400398477B685B6C03F1FF3270
:103D10007B685A647B685B6C002BE0DC00E000BFD2
:103D20007B684FF0FF325A6442F6A963C0F2400349
:103D3000984707F10807BD4680BD00BF80B584B035
:103D400000AF786042F67963C0F2400398477B6821
:103D50009B6B002B03D14FF00103FB6002E04FF09F
:103D60000003FB6042F6A963C0F240039847FB687A
:103D7000184607F11007BD4680BD00BF80B584B06E
:103D800000AF786042F67963C0F2400398477B68E1
:103D90009A6B7B68DB6B9A4203D14FF00103FB60A7
:103DA00002E04FF00003FB6042F6A963C0F240035B
:103DB0009847FB68184607F11007BD4680BD00BF55
:103DC00080B584B000AF786039607B68FB6042F6F4
:103DD0007963C0F240039847FB685B6CB3F1FF3F27
:103DE00003D1FB684FF000025A64FB689B6CB3F18F
:103DF000FF3F03D1FB684FF000029A6442F6A963CB
:103E0000C0F240039847FB689B6B002B09D1FB680D
:103E100003F124031846396844F6C973C0F240031D
:103E20009847F86843F64143C0F24003984707F1CA
:103E30001007BD4680BD00BF80B584B000AF78607C
:103E400078684FF004014FF0000243F21113C0F202
:103E500040039847F860FB68184607F11007BD4615
:103E600080BD00BF80B584B000AF786039607B68EA
:103E7000DB6C002B03D04FF00003FB6017E07B6886
:103E80009B6B002B03D04FF00003FB600FE042F66A
:103E90007963C0F2400398477B683A68DA6442F677
:103EA000A963C0F2400398474FF00103FB60FB6831
:103EB000184607F11007BD4680BD00BF80B584B02D
:103EC00000AF786039607B68BB60BB68DA6C3B68C8
:103ED0009A4203D04FF00003FB6018E0BB689B6B75
:103EE000002B03D04FF00003FB6010E042F6796333
:103EF000C0F240039847BB684FF00002DA6442F614
:103F0000A963C0F2400398474FF00103FB60FB68D0
:103F1000184607F11007BD4680BD00BF90B585B0BB
:103F200000AF786039604FF00003FB6007F10C03CD
:103F3000786819463A684FF0000343F26974C0F29A
:103F40004004A047FB68184607F11407BD4690BD22
:103F500080B584B000AF78604FF00003FB6007F1DC
:103F60000C03786819464FF0000243F6CD13C0F2F7
:103F700040039847FB68184607F11007BD4680BD0F
:103F800080B584B000AF786039607B68DB6CBB6063
:103F90004FF00003FB60BB68002B05D142F6E563E0
:103FA000C0F240039847FEE7BB689A6BBB68DB6BC7
:103FB0009A4205D342F6E563C0F240039847FEE714
:103FC000BB689A6BBB68DB6B9A421CD207F1040397
:103FD000B86819463A6843F6FD23C0F24003984793
:103FE000BB685B6A002B0ED0BB6803F12403184644
:103FF00045F27503C0F2400398470346002B02D0F8
:104000004FF00103FB60FB68184607F11007BD463F
:1040100080BD00BF90B58BB002AFF860B9603B6067
:104020001346FB80FB68002B05D142F6E563C0F226
:1040300040039847FEE73B6B042B05D942F6E56346
:10404000C0F240039847FEE7FB881846B96B45F27B
:104050009153C0F240039847B861BB69002B00F050
:10406000B280BB691A6BFB8803F1FF334FEA83030D
:10407000D3187B617B6923F007037B617B6903F0C5
:104080000703002B05D042F6E563C0F240039847D2
:10409000FEE7FB880093B869B9683A6BFB6B45F2A1
:1040A000C524C0F24004A0477869F9683A6842F62E
:1040B0007543C0F2400398470246BB691A607B6BA8
:1040C000002B02D07B6BBA691A6042F67963C0F2AA
:1040D000400398474AF22863C2F200031B6803F1C9
:1040E00001024AF22863C2F200031A604AF25053F6
:1040F000C2F200031B68002B12D14AF25053C2F2E5
:104100000003BA691A604AF22863C2F200031B680E
:10411000012B1BD145F27133C0F24003984715E0E3
:104120004AF23463C2F200031B68002B0ED14AF23C
:104130005053C2F200031B68DA6A3B6B9A4205D8FF
:104140004AF25053C2F20003BA691A604AF2486355
:10415000C2F200031B6803F101024AF24863C2F293
:1041600000031A60BB69DB6A4FF0010202FA03F236
:104170004AF23063C2F200031B681A434AF230630A
:10418000C2F200031A60BB69DA6A13464FEA83037E
:104190009B184FEA83034AF25452C2F200029A1863
:1041A000BB6903F104031046194642F66133C0F2BD
:1041B000400398474FF00103FB6142F6A963C0F248
:1041C0004003984702E04FF0FF33FB61FB69012B8E
:1041D00014D14AF23463C2F200031B68002B0DD0E5
:1041E0004AF25053C2F200031B68DA6A3B6B9A42F0
:1041F00004D242F65963C0F240039847FB6918465F
:1042000007F12407BD4690BD80B584B000AF78604B
:1042100042F67963C0F2400398477B68002B05D1D2
:104220004AF25053C2F200031B6800E07B68FB6057
:10423000FB6803F10403184642F61D43C0F2400335
:1042400098470346002B22D1FB68D96A4AF25452A0
:10425000C2F200020B464FEA83035B184FEA830366
:10426000D3181B68002B12D1FB68DB6A4FF00102E8
:1042700002FA03F36FEA03024AF23063C2F2000368
:104280001B681A404AF23063C2F200031A60FB68EE
:104290009B6A002B08D0FB6803F11803184642F60E
:1042A0001D43C0F240039847FB6803F104034AF240
:1042B000FC50C2F20000194642F66133C0F24003DE
:1042C00098474AF21063C2F200031B6803F101022F
:1042D0004AF21063C2F200031A604AF24863C2F263
:1042E00000031B6803F101024AF24863C2F20003B3
:1042F0001A6042F6A963C0F2400398474AF2346359
:10430000C2F200031B68002B0CD04AF25053C2F2D9
:1043100000031B68FA689A4204D142F65963C0F25E
:104320004003984707F11007BD4680BD80B584B0B3
:1043300000AF78604FF00003FB607B68002B3FD03C
:1043400044F6F903C0F2400398474AF22C63C2F2E4
:1043500000031A687B68D318BB604AF25053C2F25C
:1043600000031B6803F10403184642F61D43C0F224
:10437000400398470346002B16D14AF25053C2F22D
:1043800000031B68DB6A4FF0010202FA03F36FEAD5
:1043900003024AF23063C2F200031B681A404AF279
:1043A0003063C2F200031A60B86845F2F943C0F204
:1043B0004003984744F61D13C0F240039847F86045
:1043C000FB68002B04D142F65963C0F240039847C2
:1043D00007F11007BD4680BD80B584B000AF78609E
:1043E00042F67963C0F2400398477B68002B05D101
:1043F0004AF25053C2F200031B6800E07B68FB6086
:10440000FB68DB6ABB6042F6A963C0F240039847D1
:10441000BB68184607F11007BD4680BD80B586B061
:1044200000AF786039604FF000037B613B68042B7C
:1044300005D942F6E563C0F240039847FEE73B68C2
:10444000042B02D94FF004033B6042F67963C0F2BB
:10445000400398477B68002B05D14AF25053C2F2C3
:1044600000031B6800E07B683B613B691B6CFB60E1
:10447000FA683B689A4200F09D803A68FB689A426D
:1044800014D94AF25053C2F200031B683A699A42A7
:1044900017D04AF25053C2F200031B68DA6A3B6835
:1044A0009A420ED84FF001037B610AE04AF2505362
:1044B000C2F200031B683A699A4202D14FF001032D
:1044C0007B613B69DB6ABB603B691A6C3B69DB6AF9
:1044D0009A4202D13B693A68DA623B693A681A64E7
:1044E0003B68C3F105023B699A613B695969BA6847
:1044F00013464FEA83039B184FEA83034AF2545250
:10450000C2F200029B18994202D14FF0010301E070
:104510004FF00003002B45D03B6903F1040318461C
:1045200042F61D43C0F2400398470346002B11D1C9
:10453000BB684FF0010202FA03F36FEA03024AF28A
:104540003063C2F200031B681A404AF23063C2F2C1
:1045500000031A603B69DB6A4FF0010202FA03F2C2
:104560004AF23063C2F200031B681A434AF2306316
:10457000C2F200031A603B69DA6A13464FEA83030A
:104580009B184FEA83034AF25452C2F200029A186F
:104590003B6903F104031046194642F66133C0F249
:1045A000400398477B69012B04D142F65963C0F25E
:1045B0004003984742F6A963C0F24003984707F1C9
:1045C0001807BD4680BD00BF80B584B000AF7860DD
:1045D00042F67963C0F2400398477B68002B05D10F
:1045E0004AF25053C2F200031B6800E07B68FB6094
:1045F000FB6803F10403184642F61D43C0F2400372
:1046000098470346002B22D1FB68D96A4AF25452DC
:10461000C2F200020B464FEA83035B184FEA8303A2
:10462000D3181B68002B12D1FB68DB6A4FF0010224
:1046300002FA03F36FEA03024AF23063C2F20003A4
:104640001B681A404AF23063C2F200031A60FB682A
:104650009B6A002B08D0FB6803F11803184642F64A
:104660001D43C0F240039847FB6803F104034AF27C
:104670001460C2F20000194642F66133C0F24003F2
:10468000984742F6A963C0F2400398474AF2505354
:10469000C2F200031B68FA689A4225D14AF23463D9
:1046A000C2F200031B68002B05D042F65963C0F22A
:1046B0004003984718E04AF21463C2F200031A68F4
:1046C0004AF22863C2F200031B689A4207D14AF2F9
:1046D0005053C2F200034FF000021A6004E044F6A7
:1046E0009153C0F24003984707F11007BD4680BDC3
:1046F00080B584B000AF78604FF00003FB607B684A
:10470000BB607B68002B05D142F6E563C0F2400335
:104710009847FEE7BB685A694AF21463C2F2000385
:104720009A4202D14FF0010301E04FF00003002B49
:1047300015D0BB689A6A4AF2E853C2F200039A4263
:104740000DD0BB689B6A002B02D14FF0010301E042
:104750004FF00003002B02D04FF00103FB60FB6819
:10476000184607F11007BD4680BD00BF80B584B074
:1047700000AF78607B68FB607B68002B05D142F658
:10478000E563C0F240039847FEE7FB68002B5AD070
:104790004AF25053C2F200031B68FA689A4252D0A0
:1047A00042F67963C0F240039847F86844F2F16337
:1047B000C0F2400398470346012B3FD1FB6803F149
:1047C0000403184642F61D43C0F240039847FB68B5
:1047D000DB6A4FF0010202FA03F24AF23063C2F2DE
:1047E00000031B681A434AF23063C2F200031A60E6
:1047F000FB68DA6A13464FEA83039B184FEA830388
:104800004AF25452C2F200029A18FB6803F1040300
:104810001046194642F66133C0F240039847FB68E0
:10482000DA6A4AF25053C2F200031B68DB6A9A420A
:1048300004D342F65963C0F24003984742F6A96395
:10484000C0F24003984707F11007BD4680BD00BF86
:1048500090B587B004AF4FF0000300934FF0000312
:1048600001934FF0000302934FF00003039345F2CE
:104870009520C0F2400049F2A461C0F240014FF01F
:1048800082024FF0000344F21504C0F24004A04736
:1048900078607B68012B05D145F6DD03C0F240034B
:1048A000984778607B68012B18D142F6E563C0F227
:1048B000400398474AF23463C2F200034FF001020A
:1048C0001A604AF22C63C2F200034FF000021A6031
:1048D00042F63953C0F24003984708E07B68002B4A
:1048E00005D142F6E563C0F240039847FEE707F1C1
:1048F0000C07BD4690BD00BF80B400AF4AF23863DC
:10490000C2F200031B6803F101024AF23863C2F2EB
:1049100000031A60BD4680BC704700BF80B582B0FE
:1049200000AF4FF000037B604AF23863C2F200032D
:104930001B68002B05D142F6E563C0F2400398479F
:10494000FEE742F67963C0F2400398474AF23863C3
:10495000C2F200031B6803F1FF324AF23863C2F26D
:1049600000031A604AF23863C2F200031B68002B8E
:1049700040F09B804AF22863C2F200031B68002BC0
:1049800000F0938051E04AF2E853C2F20003DB6882
:10499000DB683B603B6803F11803184642F61D4391
:1049A000C0F2400398473B6803F10403184642F6FF
:1049B0001D43C0F2400398473B68DB6A4FF0010299
:1049C00002FA03F24AF23063C2F200031B681A4390
:1049D0004AF23063C2F200031A603B68DA6A134697
:1049E0004FEA83039B184FEA83034AF25452C2F200
:1049F00000029A183B6803F104031046194642F678
:104A00006133C0F2400398473B68DA6A4AF2505378
:104A1000C2F200031B68DB6A9A4206D34AF2406383
:104A2000C2F200034FF001021A604AF2E853C2F2E8
:104A300000031B68002BA6D14AF23C63C2F20003BC
:104A40001B68002B22D01AE044F60D33C0F240035D
:104A500098470346002B06D04AF24063C2F2000397
:104A60004FF001021A604AF23C63C2F200031B6875
:104A700003F1FF324AF23C63C2F200031A604AF2C9
:104A80003C63C2F200031B68002BDDD14AF2406395
:104A9000C2F200031B68012B07D14FF001037B60BA
:104AA00042F65963C0F24003984742F6A963C0F248
:104AB000400398477B68184607F10807BD4680BD4C
:104AC00080B582B000AF42F67963C0F240039847E8
:104AD0004AF22C63C2F200031B687B6042F6A963B2
:104AE000C0F2400398477B68184607F10807BD46A7
:104AF00080BD00BF80B400AF4AF22863C2F2000359
:104B00001B681846BD4680BC704700BF80B586B0A4
:104B100000AF4FF000037B614AF23863C2F200033A
:104B20001B68002B40F012814AF22C63C2F2000392
:104B30001B6803F101024AF22C63C2F200031A60FF
:104B40004AF22C63C2F200031B683B613B69002BF5
:104B500055D14AF2E053C2F200031B681B68002BD8
:104B600005D042F6E563C0F240039847FEE74AF2FB
:104B7000E053C2F200031B68FB604AF2E453C2F246
:104B800000031A684AF2E053C2F200031A604AF2C4
:104B9000E453C2F20003FA681A604AF24463C2F2B4
:104BA00000031B6803F101024AF24463C2F20003EE
:104BB0001A604AF2E053C2F200031B681B68002B24
:104BC00002D14FF0010301E04FF00003002B07D0AA
:104BD00040F21803C2F200034FF0FF321A600EE0F9
:104BE0004AF2E053C2F200031B68DB68DB68BB607B
:104BF000BB685A6840F21803C2F200031A6040F220
:104C00001803C2F200031B683A699A427AD300E0A3
:104C100000BF4AF2E053C2F200031B681B68002B7E
:104C200002D14FF0010301E04FF00003002B07D049
:104C300040F21803C2F200034FF0FF321A6061E045
:104C40004AF2E053C2F200031B68DB68DB68BB601A
:104C5000BB685B687B603A697B689A4206D240F227
:104C60001803C2F200037A681A604BE0BB6803F1D4
:104C70000403184642F61D43C0F240039847BB6840
:104C80009B6A002B08D0BB6803F11803184642F654
:104C90001D43C0F240039847BB68DB6A4FF0010236
:104CA00002FA03F24AF23063C2F200031B681A43AD
:104CB0004AF23063C2F200031A60BB68DA6A134634
:104CC0004FEA83039B184FEA83034AF25452C2F21D
:104CD00000029A18BB6803F104031046194642F615
:104CE0006133C0F240039847BB68DA6A4AF2505316
:104CF000C2F200031B68DB6A9A4289D34FF00103BA
:104D00007B6185E74AF25053C2F200031B68D96AFF
:104D10004AF25452C2F200020B464FEA83035B1878
:104D20004FEA8303D3181B68012B02D94FF001030C
:104D30007B614AF23C63C2F200031B68002B16D170
:104D400049F26913C0F24003984710E04AF23C630D
:104D5000C2F200031B6803F101024AF23C63C2F293
:104D600000031A6049F26913C0F2400398474AF2FF
:104D70004063C2F200031B68002B02D04FF0010316
:104D80007B617B69184607F11807BD4680BD00BFEF
:104D900090B585B000AF4AF23863C2F200031B68D9
:104DA000002B07D04AF24063C2F200034FF0010229
:104DB0001A6098E04AF24063C2F200034FF000022A
:104DC0001A604AF25053C2F200031B681A684AF292
:104DD0005053C2F200031B681B6B9A4212D84AF26E
:104DE0005053C2F200031A684AF25053C2F2000351
:104DF0001B6803F134031046194649F25113C0F2FF
:104E0000400398474AF25053C2F200031B681B6BE1
:104E1000184649F2AC61C0F240014FF0140249F269
:104E20002963C0F2400398470346002B12D04AF290
:104E30005053C2F200031A684AF25053C2F2000300
:104E40001B6803F134031046194649F25113C0F2AE
:104E5000400398474AF23063C2F200031B687B604C
:104E60007B68B3FA83F4FC70FB78C3F11F03FB602B
:104E70004AF25452C2F20002F9680B464FEA830329
:104E80005B184FEA8303D3181B68002B05D142F649
:104E9000E563C0F240039847FEE7FA6813464FEA1D
:104EA00083039B184FEA83034AF25452C2F2000272
:104EB0009B18BB60BB685B685A68BB685A60BB687C
:104EC0005A68BB6803F108039A4204D1BB685B6867
:104ED0005A68BB685A60BB685B68DA684AF250532C
:104EE000C2F200031A6007F11407BD4690BD00BF6F
:104EF00080B584B000AF786039607B68002B05D145
:104F000042F6E563C0F240039847FEE74AF2505389
:104F1000C2F200031B6803F118037868194642F6D1
:104F2000A933C0F2400398474AF25053C2F200033B
:104F30001B6803F10403184642F61D43C0F2400308
:104F400098470346002B16D14AF25053C2F2000391
:104F50001B68DB6A4FF0010202FA03F36FEA0302F7
:104F60004AF23063C2F200031B681A404AF230630F
:104F7000C2F200031A603B68B3F1FF3F11D14AF25D
:104F80005053C2F200031B6803F104034AF2146099
:104F9000C2F20000194642F66133C0F2400398475E
:104FA0000DE04AF22C63C2F200031A683B68D31882
:104FB000FB60F86845F2F943C0F24003984707F1F7
:104FC0001007BD4680BD00BF80B584B000AF7860DB
:104FD00039607B68002B05D142F6E563C0F24003DF
:104FE0009847FEE74AF25053C2F200031B6803F1F0
:104FF00018037868194642F66133C0F240039847B7
:105000004AF25053C2F200031B6803F1040318462E
:1050100042F61D43C0F2400398470346002B16D1C9
:105020004AF25053C2F200031B68DB6A4FF00102E0
:1050300002FA03F36FEA03024AF23063C2F200039A
:105040001B681A404AF23063C2F200031A604AF247
:105050002C63C2F200031A683B68D318FB60F8683F
:1050600045F2F943C0F24003984707F11007BD46E7
:1050700080BD00BF80B584B000AF78607B68DB681E
:10508000DB68BB60BB68002B05D142F6E563C0F26C
:1050900040039847FEE7BB6803F11803184642F641
:1050A0001D43C0F2400398474AF23863C2F200033E
:1050B0001B68002B31D1BB6803F10403184642F68C
:1050C0001D43C0F240039847BB68DB6A4FF0010202
:1050D00002FA03F24AF23063C2F200031B681A4379
:1050E0004AF23063C2F200031A60BB68DA6A134600
:1050F0004FEA83039B184FEA83034AF25452C2F2E9
:1051000000029A18BB6803F104031046194642F6E0
:105110006133C0F2400398470CE0BB6803F1180309
:105120004AF2E850C2F20000194642F66133C0F27A
:1051300040039847BB68DA6A4AF25053C2F2000350
:105140001B68DB6A9A420AD34FF00103FB604AF204
:105150004063C2F200034FF001021A6002E04FF018
:105160000003FB60FB68184607F11007BD4680BDD1
:1051700080B582B000AF78607B68002B05D142F625
:10518000E563C0F240039847FEE74AF24463C2F287
:1051900000031A687B681A604AF22C63C2F20003AB
:1051A0001A687B685A6007F10807BD4680BD00BFDA
:1051B00080B584B000AF786039607B68002B05D182
:1051C00042F6E563C0F240039847FEE73B68002BD8
:1051D00005D142F6E563C0F240039847FEE742F688
:1051E0007963C0F2400398474AF22C63C2F200038D
:1051F0001B68BB603B681B68B3F1FF3F03D14FF0F6
:105200000003FB602FE07B681A684AF24463C2F235
:1052100000031B689A4208D07B685A68BB689A42B0
:1052200003D84FF00103FB601DE07B685B68BA6840
:10523000D21A3B681B689A4212D23B681A687B6894
:105240005968BB68CB1AD2183B681A60786845F277
:105250007113C0F2400398474FF00003FB6002E077
:105260004FF00103FB6042F6A963C0F24003984788
:10527000FB68184607F11007BD4680BD80B400AF3B
:105280004AF24063C2F200034FF001021A60BD46C9
:1052900080BC704780B582B000AF786000E000BF8E
:1052A00045F23943C0F2400398474AF25453C2F2E0
:1052B00000031B68012BF2D942F65963C0F2400388
:1052C0009847ECE780B586B000AFF860B9607A60C7
:1052D0003B604FF000037B6113E0BA687B69D31831
:1052E0001A78F9687B69CB1803F130031A71BA6830
:1052F0007B69D3181B78002B07D07B6903F101036E
:105300007B617B69092BE8D900E000BFFB684FF0A7
:10531000000283F83D207B68042B02D94FF0040380
:105320007B60FB687A68DA62FB687A681A64FB68FB
:1053300003F10403184642F64533C0F24003984790
:10534000FB6803F11803184642F64533C0F24003E8
:105350009847FB68FA681A617B68C3F10502FB682D
:105360009A61FB68FA685A6207F11807BD4680BD6A
:1053700080B582B000AF4FF000037B6015E07A6823
:1053800013464FEA83039B184FEA83034AF25452B1
:10539000C2F200029B18184642F60533C0F24003E1
:1053A00098477B6803F101037B607B68042BE6D997
:1053B0004AF2B850C2F2000042F60533C0F2400390
:1053C00098474AF2CC50C2F2000042F60533C0F2D0
:1053D000400398474AF2E850C2F2000042F6053313
:1053E000C0F2400398474AF2FC50C2F2000042F675
:1053F0000533C0F2400398474AF21460C2F200003D
:1054000042F60533C0F2400398474AF2E053C2F235
:1054100000034AF2B852C2F200021A604AF2E453A0
:10542000C2F200034AF2CC52C2F200021A6007F143
:105430000807BD4680BD00BF80B582B000AF4FE019
:1054400044F6F903C0F2400398474AF2FC53C2F213
:1054500000031B68002B14BF00230123DBB27B6019
:1054600044F61D13C0F2400398477B68002B37D1E8
:1054700042F67963C0F2400398474AF2FC53C2F205
:105480000003DB68DB683B603B6803F104031846FC
:1054900042F61D43C0F2400398474AF22863C2F225
:1054A00000031B6803F1FF324AF22863C2F20003D3
:1054B0001A604AF21063C2F200031B6803F1FF3264
:1054C0004AF21063C2F200031A6042F6A963C0F206
:1054D00040039847386845F21963C0F24003984783
:1054E0004AF21063C2F200031B68002BA8D107F137
:1054F0000807BD4680BD00BF80B582B000AF7860B0
:105500004AF25053C2F200031B687A685A604AF2AA
:105510002C63C2F200031B687A689A4213D24AF2E3
:10552000E453C2F200031A684AF25053C2F2000375
:105530001B6803F104031046194642F6A933C0F272
:105540004003984720E04AF2E053C2F200031A6891
:105550004AF25053C2F200031B6803F104031046E1
:10556000194642F6A933C0F24003984740F21803A7
:10557000C2F200031B687A689A4205D240F218030F
:10558000C2F200037A681A6007F10807BD4680BDC1
:1055900080B584B000AF03463960FB804FF0440013
:1055A00040F24553C0F240039847F860FB68002B77
:1055B0002CD03B68002B0AD1FB884FEA83031846A6
:1055C00040F24553C0F240039847034600E03B6871
:1055D000FA681363FB681B6B002B09D1F86840F273
:1055E000C563C0F2400398474FF00003FB600DE035
:1055F000FB681A6BFB884FEA830310464FF0A50146
:105600001A4649F25963C0F240039847FB681846AE
:1056100007F11007BD4680BD80B582B000AF78604D
:105620007B681B6B184640F2C563C0F24003984785
:10563000786840F2C563C0F24003984707F1080755
:10564000BD4680BD80B483B000AF4AF25053C2F271
:1056500000031B687B607B68184607F10C07BD469A
:1056600080BC704780B483B000AF4AF23463C2F2AA
:1056700000031B68002B03D14FF000037B600DE09B
:105680004AF23863C2F200031B68002B03D14FF0CB
:1056900001037B6002E04FF002037B607B681846E9
:1056A00007F10C07BD4680BC704700BF80B584B0D1
:1056B00000AF78607B68FB607B68002B00F0958012
:1056C000FB68DA6A4AF25053C2F200031B68DB6AD5
:1056D0009A4280F08A804AF25053C2F200031B685B
:1056E000DB6AC3F10502FB689A61FB685969FB68D4
:1056F000DA6A13464FEA83039B184FEA83034AF2A0
:105700005452C2F200029B18994202D14FF0010399
:1057100001E04FF00003002B5FD0FB6803F10403AE
:10572000184642F61D43C0F2400398470346002B3B
:1057300022D1FB68D96A4AF25452C2F200020B46E7
:105740004FEA83035B184FEA8303D3181B68002BCF
:1057500012D1FB68DB6A4FF0010202FA03F36FEA31
:1057600003024AF23063C2F200031B681A404AF295
:105770003063C2F200031A604AF25053C2F20003CF
:105780001B68DA6AFB68DA62FB68DB6A4FF00102C9
:1057900002FA03F24AF23063C2F200031B681A43B2
:1057A0004AF23063C2F200031A60FB68DA6A1346F9
:1057B0004FEA83039B184FEA83034AF25452C2F222
:1057C00000029A18FB6803F104031046194642F6DA
:1057D0006133C0F24003984707E04AF25053C2F2E7
:1057E00000031B68DA6AFB68DA6207F11007BD463E
:1057F00080BD00BF80B584B000AF78607B68FB607F
:105800007B68002B66D0FB68DA6AFB681B6C9A42E7
:1058100060D0FB6803F10403184642F61D43C0F252
:10582000400398470346002B22D1FB68D96A4AF20D
:105830005452C2F200020B464FEA83035B184FEA50
:105840008303D3181B68002B12D1FB68DB6A4FF06F
:10585000010202FA03F36FEA03024AF23063C2F272
:1058600000031B681A404AF23063C2F200031A6058
:10587000FB681A6CFB68DA62FB68DB6AC3F105023D
:10588000FB689A61FB68DB6A4FF0010202FA03F2DF
:105890004AF23063C2F200031B681A434AF23063D3
:1058A000C2F200031A60FB68DA6A13464FEA830308
:1058B0009B184FEA83034AF25452C2F200029A182C
:1058C000FB6803F104031046194642F66133C0F247
:1058D0004003984707F11007BD4680BD90B587B0DB
:1058E00004AF4FF000037B6045F6B173C0F2400394
:1058F00098474AF27C63C2F200031B68002B1DD05C
:105900004FF0020300934FF0000301934FF00003A8
:1059100002934FF00003039345F64130C0F240007C
:1059200049F2C061C0F240014FF482724FF00003AF
:1059300044F21504C0F24004A04778607B68002B55
:1059400005D142F6E563C0F240039847FEE77B6865
:10595000184607F10C07BD4690BD00BF80B586B064
:1059600000AFF860B9607A603B60BB68002B03D180
:105970004FF000037B6127E04FF0280040F24553D1
:10598000C0F24003984778617B69002B1CD045F634
:10599000B173C0F2400398477B69FA681A607B696B
:1059A000BA689A617B697A68DA617B693A681A62D7
:1059B0007B693A6A5A627B6903F10403184642F62E
:1059C0004533C0F240039847BB68002B05D142F62F
:1059D000E563C0F240039847FEE77B69184607F18C
:1059E0001807BD4680BD00BF90B589B000AFF86014
:1059F000B9607A603B604FF00003FB614AF27C6360
:105A0000C2F200031B68002B49D0BB683B617B6876
:105A10007B61FB68BB613B68002B2ED145F265635F
:105A2000C0F2400398470346012B12D14AF27C632F
:105A3000C2F200031A6807F11003104619463A6BC8
:105A40004FF0000343F2F134C0F24004A047F86184
:105A500025E04AF27C63C2F200031A6807F11003E2
:105A6000104619464FF000024FF0000343F2F134A4
:105A7000C0F24004A047F86111E04AF27C63C2F230
:105A800000031A6807F11003104619463A684FF0F0
:105A9000000343F22564C0F24004A047F861FB69AB
:105AA000184607F12407BD4690BD00BF90B587B0EA
:105AB00002AF786039604AF27463C2F200031B6877
:105AC000DB68DB68FB60FB6803F10403184642F601
:105AD0001D43C0F240039847FB68DB69012B27D1C7
