:020000040040BA
:10000000D83400206D0840006908400069084000AD
:1000100069084000690840006908400000000000CD
:10002000000000000000000000000000690840001F
:1000300069084000000000006908400069084000AD
:1000400069084000690840006908400069084000EC
:1000500069084000690840006908400069084000DC
:1000600069084000690840006908400049064000EE
:1000700065064000810640006908400069084000AC
:1000800069084000690840006908400069084000AC
:10009000690840006908400069084000690840009C
:1000A000690840006908400069084000690840008C
:1000B000690840006908400069084000690840007C
:1000C000690840006908400069084000690840006C
:1000D00008B50548054B191A062900D808BD044A79
:1000E000002AFBD09047F9E7DC0D4000DF0D40000F
:1000F0000000000008B50748074B191A8A1002EBE8
:10010000D273591000D108BD044A002AFBD0904791
:10011000F9E700BFDC0D4000DC0D400000000000EE
:1001200010B5064C237843B9FFF7D2FF044810B14D
:100130000448AFF300800121217010BD400400206D
:1001400000000000DC0D400008B5084B1BB108485A
:100150000849AFF300800848016811B1074A02B1AD
:100160009047BDE80840FFF7C5BF00BF0000000092
:10017000DC0D400044040020DC0D400000000000C5
:1001800010B54FF46060C0F2277040F65933C0F2EA
:10019000400398474FF000004FF03E0140F23D729F
:1001A000C0F24002904740F2AD74C0F24004A04754
:1001B0000028FCD040F2BD70C0F2400080474FF4F0
:1001C0008061C4F20E0143F60173C2F213038B6225
:1001D00040F2CD74C0F24004A0470028FCD04FF09C
:1001E000100040F29D62C0F24002904740F6A1101C
:1001F000C0F24000804710BDF8B541F25040C4F253
:100200000E0040F66103C0F2400398474FF00B0028
:1002100040F2DD74C0F24004A0474FF00C00A0474C
:100220004FF00D00A0474FF49050C4F20E004FF471
:10023000000202630261C0F8A0204FF46064C4F2BF
:100240000E044FF004056561C4F8A0506566C4F85B
:10025000905065656562C4F88050216F21F00406F6
:100260002667676F27F0040363674FF48012026309
:100270000261C0F8A0204FF4803121632161C4F8ED
:10028000A0104FF4800606630661C0F8A0604FF02E
:100290000107C0F600074FF00300394640F25D4603
:1002A000C0F24006B04728463946B0474FF00C0030
:1002B0003946B0474FF00D003946B0474FF00E00B9
:1002C0003946B0474FF009004FF08051B0474FF02A
:1002D0000A004FF00101C1F20001B0474FF00107E1
:1002E000C3F600074FF055003946B0474FF05F00A6
:1002F0003946B0474FF05B004FF00101C2F60001F4
:10030000B0476566C4F8905065656562C4F8805072
:10031000206F20F004032367626F22F004016167FD
:10032000F8BD00BF0AB1416670470166704700BF63
:1003300010B44264B1F1C05F30D008D8B1F1006FA1
:1003400014D0B1F1805F1ED000293BD039E0B1F16B
:10035000205F37D003D8B1F1005F32D129E0B1F18D
:10036000405F2FD0B1F1605F2BD12BE0016F046FA4
:100370006FEA0203214019400167416F446F214039
:100380000B4043671DE0036F42EA03010167436FBF
:10039000416F0B4023EA0203436712E0036F016FD2
:1003A0000B4023EA02030367436F42EA03014167FC
:1003B00007E0036F42EA03010167436F42EA03016A
:1003C0004167426010BC704741647047F8B504460D
:1003D0000D4616461F4640F2C933C0F24003984707
:1003E00020462946069A40F22533C0F2400398473A
:1003F0000FB1256500E065650EB1256300E065631A
:1004000025612560F8BD00BF70B504460D4616464F
:1004100040F2C933C0F2400398472046294606F00F
:10042000010240F22533C0F24003984716F00A0F4C
:1004300014BF2562656216F0020F02D0C4F8805026
:1004400004E016F0080F18BFC4F8845065612560F9
:1004500070BD00BFC06C7047806C7047F0B583B052
:100460000D464FEA501606F5001101F207724FEAE9
:10047000422605F0F044B4F1005F64D00AD8B4F12C
:10048000805F2CD0B4F1C05F43D0B4F1006F40F076
:100490009D800AE0B4F1405F7ED0B4F1605F7BD014
:1004A000B4F1205F40F0928067E000F01F034FF04E
:1004B000010404FA03F730464FF000613A4640F277
:1004C0003133C0F2400398473046394605EA04020A
:1004D00040F22533C0F240039847204678E000F010
:1004E0001F074FF0010404FA07F730464FF0805120
:1004F0003A4640F23133C0F240039847304639461D
:1005000005EA040240F22533C0F240039847204632
:100510005EE000F01F004FF0010404FA00F73046DF
:100520004FF0C0513A4640F23133C0F24003984791
:100530003046394605EA040240F22533C0F2400352
:100540009847204644E000F01F024FF0010404FAEF
:1005500002F730464FF000513A4640F23133C0F2D4
:10056000400398473046394605EA040240F22533F5
:10057000C0F24003984720462AE000F01F014FF0E8
:100580000104304604FA01F12A4640F20943C0F260
:100590004003984720461BE000F01F034FF0010482
:1005A00005F0605205EA04000090304604FA03F1B9
:1005B000B2F1605F14BF00220122C5F3800340F254
:1005C000CD35C0F24005A847204601E04FF00000BD
:1005D00003B0F0BD2DE9F04180460E4640F2554390
:1005E000C0F2400398470546404640F25941C0F2E8
:1005F00040018847054014D0124C274654F80C0C93
:10060000B0420AD154F8081C294206D0226830466C
:10061000904754F8083C25EA030504F11004002D26
:10062000EBD140F2D041C2F20001086838B140F28B
:100630005C42C2F2000213680BB140469847BDE825
:10064000F08100BF6C04002008B54FF46060C4F274
:100650000E004FF00B0140F2D553C0F24003984713
:1006600008BD00BF08B54FF48050C4F20E004FF033
:100670000C0140F2D553C0F24003984708BD00BFBB
:1006800008B54FF49050C4F20E004FF00D0140F247
:10069000D553C0F24003984708BD00BF4FF48063B4
:1006A000C4F20E031A6B22F0700108431863986EAF
:1006B00010F0080F07D010E000F1FF33906E10F03B
:1006C000080F38D009E04FF400604FF48062C4F2A4
:1006D0000E02916E11F0080FEED04FF48061C4F25B
:1006E0000E010A6B22F0030343F002000863896ED7
:1006F00011F0080F09D04FF00000704703F1FF33ED
:10070000916E11F0080F13D009E04FF400634FF41D
:100710008062C4F20E02906E10F0080FEED04FF01F
:10072000000070474FF0010070474FF00100704724
:10073000013BF0D1F9E7581ECBD1F3E788B14FF474
:100740008061C4F20E01086A4FF6FC72CFF6C862EF
:1007500002404FF00203C0F2371342EA030008627E
:1007600070474FF48063C4F20E031A6A22F45C10DF
:1007700020F0030242F45C1040F001024FEA0161F4
:1007800042EA114018624FF48062C4F20E02936E86
:1007900013F0010FFBD04FF48061C4F20E01086A20
:1007A00040F09B7242F480330B6270474FF48063D9
:1007B000C4F20E03986E00F4803070474FF48063EB
:1007C000C4F20E034FF000529A6270474FF48063F8
:1007D000C4F20E03986E00F002007047222835D84C
:1007E0001F2817D84FF48061C4F20E018A694FF0B8
:1007F000010303FA00F31A4093422AD04FF001019B
:1008000001FA00F04FF48062C4F20E0210614FF062
:10081000000070474FF48063C4F20E03D3F8082140
:10082000A0F120004FF0010101FA00F10A409142CD
:1008300012D04FF0010303FA00F04FF48062C4F2CB
:100840000E02C2F800014FF0000070474FF00100A7
:1008500070474FF0000070474FF00000704700BF36
:100860004FF4004343607047FEE700BF38B540F2E5
:100870000003C2F2000340F6DC52C0F240029A428A
:1008800003D03F483F49814204D33F4B3F4A9A42FD
:1008900025D342E03E4D3F4C631B23F003054FF050
:1008A000000340F20002C2F2000240F6DC51C0F246
:1008B000400105F10400C5F380045D589D5003F12B
:1008C0000403834253D1E0E75D589D5003F10403D4
:1008D0005C589C5003F104038342F5D1D5E72E4DBB
:1008E0002E49481B20F0030440F24043C2F20003AB
:1008F000E2184FF00001501BA0F10400C0F3800487
:1009000045F8041F95422BD107E005F10403696007
:1009100005F1080559609542F7D140F20005C0F293
:10092000400525F07F014FF46D42CEF20002916048
:1009300005F16040B0F5203F07D24FF46D44CEF290
:100940000004A36843F00055A56040F64551C0F28D
:100950004001884740F61D42C0F240029047FEE742
:10096000002CD2D045F8041F9542CED1D5E7002CFB
:10097000AAD05C589C5003F104038342A4D184E7BD
:100980004004002000000020D40400204004002087
:1009900004000020430400203C040020CF04002079
:1009A0004FF48063C4F20E03186B00F00303032BB3
:1009B00000F2A980DFE803F002144F4F41F210402B
:1009C000C4F20E00416911F0800F40F20C03C2F234
:1009D000000314BF4FF400424FF4FA421A6092E051
:1009E0004FF48063C4F20E03186A10F0807F09D0C0
:1009F0004FF4D853C0F2B70340F20C02C2F2000227
:100A0000136080E04FF41061C0F23D0140F20C022F
:100A1000C2F2000211604FF48063C4F20E03186A40
:100A200000F07001102902D020296CD109E04FF4A8
:100A30009050C0F27A0040F20C01C2F2000108604E
:100A400061E04FF4D853C0F2B70340F20C02C2F297
:100A50000002136057E04FF48062C4F20E02136A82
:100A600013F0807F09D04FF4D853C0F2B70340F29F
:100A70000C02C2F20002136027E04FF41063C0F2D0
:100A80003D0340F20C02C2F2000213604FF4806397
:100A9000C4F20E031A6A02F07003102B02D0202B4E
:100AA00013D109E04FF49053C0F27A0340F20C02E4
:100AB000C2F20002136008E04FF4D853C0F2B7034B
:100AC00040F20C02C2F2000213604FF48063C4F2E1
:100AD0000E031A6B02F00303022B4FF48062C4F280
:100AE0000E0207BF906A916AD06AD16A40F20C0385
:100AF000C2F20003C0F30A401A6800FB0220C9B228
:100B0000B0FBF1F21A604FF48062C4F20E02106B77
:100B100000F0700170290ED140F20C03C2F2000304
:100B200018684AF6AB22CAF6AA22A2FB00014FEAD5
:100B30005100186070474FF48063C4F20E031A6BC3
:100B400040F20C00C2F20000C2F30211036823FA63
:100B500001F30360704700BF42F6FF43C0F2311358
:100B600098420CD84FF42063C4F20E034FF00000FB
:100B700018604FF44061C4F20E010860704745F6FA
:100B8000FF11C0F2622188420CD84FF42060C4F2F9
:100B90000E004FF4807101604FF44062C4F20E0207
:100BA0001160704748F2FF63C0F2933398420CD84B
:100BB0004FF42061C4F20E014FF400720A604FF44A
:100BC0004063C4F20E031A6070474BF2FF31C0F26B
:100BD000C44188420CD84FF42063C4F20E034FF492
:100BE00040721A604FF44060C4F20E000260704719
:100BF0004EF2FF03C0F2F55398424FF42060C4F266
:100C00000E0094BF4FF480624FF4A06202604FF474
:100C10004061C4F20E010A60704700BF2DE9F04345
:100C200083B04FF00003019340F28110C0F2400006
:100C3000804740F2F911C0F2400188474FF46064E8
:100C4000C4F20E044FF080722261C4F8A0204FF469
:100C50006064C4F20E041646914643F23A2840F20C
:100C60000105C2F2000542F27C17C4F830904046FC
:100C7000A84766633846A847F7E700BF2DE9F84361
:100C80009846234B1C680646D4F848010F46914607
:100C900018B904F5A670C4F8480141681F2916DD8B
:100CA0001C4818B94FF0FF30BDE8F8834FF4C87006
:100CB000AFF300800028F5D0D4F848210025456026
:100CC0000260C4F84801C0F88851C0F88C51B6B130
:100CD0004468D0F88811012200EB840302FA04F280
:100CE0001143022EC3F88890C0F888111C46C3F83F
:100CF000088104D1D0F88C311A43C0F88C214168A6
:100D00008B1C4A1C40F8237042600020BDE8F88329
:100D1000B00D40000000000070B5084B084CE01A10
:100D2000841003EB84060025043D1CB172599047E2
:100D3000013CF9E7BDE8704000F048B8D80D40002C
:100D4000DC0D400038B50E4D0E4BE81A851000241E
:100D5000AC4205D00B4951F8242090470134F7E705
:100D600000F02AF80849094A541AA5100024AC4298
:100D700005D0054B53F8240080470134F7E738BD10
:100D8000C40D4000C40D4000C40D4000CC0D400017
:100D9000024B13B1024800F005B870470000000094
:100DA000190D40000146002002460346FFF766BFCA
:100DB0001800002043000000F8B500BFF8BC08BCD4
:100DC0009E467047910D400049014000F8B500BFB4
:0C0DD000F8BC08BC9E46704721014000A2
:100DDC00BFF35F8F0138FBD1704700BF00093D00A6
:100DEC001800002000000000000000000403002098
:100DFC006C030020D4030020000000000000000061
:100E0C0000000000000000000000000000000000D6
:100E1C00000000000000000000000000B40D4000C5
:100E2C0000000000000000000000000000000000B6
:100E3C0000000000000000000000000000000000A6
:100E4C000000000000000000000000000000000096
:100E5C000000000000000000000000000000000086
:100E6C000000000000000000000000000000000076
:100E7C000000000000000000000000000000000066
:100E8C000000000000000000000000000000000056
:100E9C0001000000000000000E33CDAB34126DE6F3
:100EAC00ECDE05000B00000000000000000000005C
:100EBC000000000000000000000000000000000026
:100ECC000000000000000000000000000000000016
:100EDC000000000000000000000000000000000006
:100EEC0000000000000000000000000000000000F6
:040000050040086D42
:00000001FF
